{"abi":[{"inputs":[{"internalType":"uint256","name":"minimum","type":"uint256"},{"internalType":"address","name":"creator","type":"address"}],"stateMutability":"nonpayable","type":"constructor"},{"inputs":[{"internalType":"uint256","name":"index","type":"uint256"}],"name":"approveRequest","outputs":[],"stateMutability":"nonpayable","type":"function"},{"inputs":[{"internalType":"address","name":"","type":"address"}],"name":"approvers","outputs":[{"internalType":"bool","name":"","type":"bool"}],"stateMutability":"view","type":"function"},{"inputs":[],"name":"approversCount","outputs":[{"internalType":"uint256","name":"","type":"uint256"}],"stateMutability":"view","type":"function"},{"inputs":[],"name":"contribute","outputs":[],"stateMutability":"payable","type":"function"},{"inputs":[{"internalType":"string","name":"description","type":"string"},{"internalType":"uint256","name":"value","type":"uint256"},{"internalType":"address","name":"recipient","type":"address"}],"name":"createRequest","outputs":[],"stateMutability":"nonpayable","type":"function"},{"inputs":[{"internalType":"uint256","name":"index","type":"uint256"}],"name":"finishRequest","outputs":[],"stateMutability":"nonpayable","type":"function"},{"inputs":[],"name":"getDetail","outputs":[{"internalType":"address","name":"","type":"address"},{"internalType":"uint256","name":"","type":"uint256"},{"internalType":"uint256","name":"","type":"uint256"},{"internalType":"uint256","name":"","type":"uint256"},{"internalType":"uint256","name":"","type":"uint256"}],"stateMutability":"view","type":"function"},{"inputs":[],"name":"manager","outputs":[{"internalType":"address","name":"","type":"address"}],"stateMutability":"view","type":"function"},{"inputs":[],"name":"minimumContribution","outputs":[{"internalType":"uint256","name":"","type":"uint256"}],"stateMutability":"view","type":"function"},{"inputs":[{"internalType":"uint256","name":"","type":"uint256"}],"name":"requests","outputs":[{"internalType":"string","name":"description","type":"string"},{"internalType":"uint256","name":"value","type":"uint256"},{"internalType":"address","name":"recipient","type":"address"},{"internalType":"bool","name":"complete","type":"bool"},{"internalType":"uint256","name":"approvalsCount","type":"uint256"}],"stateMutability":"view","type":"function"},{"inputs":[],"name":"requestsCount","outputs":[{"internalType":"uint256","name":"","type":"uint256"}],"stateMutability":"view","type":"function"}],"devdoc":{"kind":"dev","methods":{},"version":1},"evm":{"assembly":"    /* \"Donation.sol\":423:2476  contract Donation {... */\n  mstore(0x40, 0x80)\n    /* \"Donation.sol\":954:1070  constructor(uint minimum, address creator) {... */\n  callvalue\n  dup1\n  iszero\n  tag_1\n  jumpi\n  0x00\n  dup1\n  revert\ntag_1:\n  pop\n  mload(0x40)\n  sub(codesize, bytecodeSize)\n  dup1\n  bytecodeSize\n  dup4\n  codecopy\n  dup2\n  dup2\n  add\n  0x40\n  mstore\n  dup2\n  add\n  swap1\n  tag_2\n  swap2\n  swap1\n  tag_3\n  jump\t// in\ntag_2:\n    /* \"Donation.sol\":1029:1036  minimum */\n  dup2\n    /* \"Donation.sol\":1007:1026  minimumContribution */\n  0x01\n    /* \"Donation.sol\":1007:1036  minimumContribution = minimum */\n  dup2\n  swap1\n  sstore\n  pop\n    /* \"Donation.sol\":1056:1063  creator */\n  dup1\n    /* \"Donation.sol\":1046:1053  manager */\n  0x00\n  dup1\n    /* \"Donation.sol\":1046:1063  manager = creator */\n  0x0100\n  exp\n  dup2\n  sload\n  dup2\n  0xffffffffffffffffffffffffffffffffffffffff\n  mul\n  not\n  and\n  swap1\n  dup4\n  0xffffffffffffffffffffffffffffffffffffffff\n  and\n  mul\n  or\n  swap1\n  sstore\n  pop\n    /* \"Donation.sol\":954:1070  constructor(uint minimum, address creator) {... */\n  pop\n  pop\n    /* \"Donation.sol\":423:2476  contract Donation {... */\n  jump(tag_6)\n    /* \"#utility.yul\":88:205   */\ntag_8:\n    /* \"#utility.yul\":197:198   */\n  0x00\n    /* \"#utility.yul\":194:195   */\n  dup1\n    /* \"#utility.yul\":187:199   */\n  revert\n    /* \"#utility.yul\":334:411   */\ntag_10:\n    /* \"#utility.yul\":371:378   */\n  0x00\n    /* \"#utility.yul\":400:405   */\n  dup2\n    /* \"#utility.yul\":389:405   */\n  swap1\n  pop\n    /* \"#utility.yul\":334:411   */\n  swap2\n  swap1\n  pop\n  jump\t// out\n    /* \"#utility.yul\":417:539   */\ntag_11:\n    /* \"#utility.yul\":490:514   */\n  tag_23\n    /* \"#utility.yul\":508:513   */\n  dup2\n    /* \"#utility.yul\":490:514   */\n  tag_10\n  jump\t// in\ntag_23:\n    /* \"#utility.yul\":483:488   */\n  dup2\n    /* \"#utility.yul\":480:515   */\n  eq\n    /* \"#utility.yul\":470:533   */\n  tag_24\n  jumpi\n    /* \"#utility.yul\":529:530   */\n  0x00\n    /* \"#utility.yul\":526:527   */\n  dup1\n    /* \"#utility.yul\":519:531   */\n  revert\n    /* \"#utility.yul\":470:533   */\ntag_24:\n    /* \"#utility.yul\":417:539   */\n  pop\n  jump\t// out\n    /* \"#utility.yul\":545:688   */\ntag_12:\n    /* \"#utility.yul\":602:607   */\n  0x00\n    /* \"#utility.yul\":633:639   */\n  dup2\n    /* \"#utility.yul\":627:640   */\n  mload\n    /* \"#utility.yul\":618:640   */\n  swap1\n  pop\n    /* \"#utility.yul\":649:682   */\n  tag_26\n    /* \"#utility.yul\":676:681   */\n  dup2\n    /* \"#utility.yul\":649:682   */\n  tag_11\n  jump\t// in\ntag_26:\n    /* \"#utility.yul\":545:688   */\n  swap3\n  swap2\n  pop\n  pop\n  jump\t// out\n    /* \"#utility.yul\":694:820   */\ntag_13:\n    /* \"#utility.yul\":731:738   */\n  0x00\n    /* \"#utility.yul\":771:813   */\n  0xffffffffffffffffffffffffffffffffffffffff\n    /* \"#utility.yul\":764:769   */\n  dup3\n    /* \"#utility.yul\":760:814   */\n  and\n    /* \"#utility.yul\":749:814   */\n  swap1\n  pop\n    /* \"#utility.yul\":694:820   */\n  swap2\n  swap1\n  pop\n  jump\t// out\n    /* \"#utility.yul\":826:922   */\ntag_14:\n    /* \"#utility.yul\":863:870   */\n  0x00\n    /* \"#utility.yul\":892:916   */\n  tag_29\n    /* \"#utility.yul\":910:915   */\n  dup3\n    /* \"#utility.yul\":892:916   */\n  tag_13\n  jump\t// in\ntag_29:\n    /* \"#utility.yul\":881:916   */\n  swap1\n  pop\n    /* \"#utility.yul\":826:922   */\n  swap2\n  swap1\n  pop\n  jump\t// out\n    /* \"#utility.yul\":928:1050   */\ntag_15:\n    /* \"#utility.yul\":1001:1025   */\n  tag_31\n    /* \"#utility.yul\":1019:1024   */\n  dup2\n    /* \"#utility.yul\":1001:1025   */\n  tag_14\n  jump\t// in\ntag_31:\n    /* \"#utility.yul\":994:999   */\n  dup2\n    /* \"#utility.yul\":991:1026   */\n  eq\n    /* \"#utility.yul\":981:1044   */\n  tag_32\n  jumpi\n    /* \"#utility.yul\":1040:1041   */\n  0x00\n    /* \"#utility.yul\":1037:1038   */\n  dup1\n    /* \"#utility.yul\":1030:1042   */\n  revert\n    /* \"#utility.yul\":981:1044   */\ntag_32:\n    /* \"#utility.yul\":928:1050   */\n  pop\n  jump\t// out\n    /* \"#utility.yul\":1056:1199   */\ntag_16:\n    /* \"#utility.yul\":1113:1118   */\n  0x00\n    /* \"#utility.yul\":1144:1150   */\n  dup2\n    /* \"#utility.yul\":1138:1151   */\n  mload\n    /* \"#utility.yul\":1129:1151   */\n  swap1\n  pop\n    /* \"#utility.yul\":1160:1193   */\n  tag_34\n    /* \"#utility.yul\":1187:1192   */\n  dup2\n    /* \"#utility.yul\":1160:1193   */\n  tag_15\n  jump\t// in\ntag_34:\n    /* \"#utility.yul\":1056:1199   */\n  swap3\n  swap2\n  pop\n  pop\n  jump\t// out\n    /* \"#utility.yul\":1205:1712   */\ntag_3:\n    /* \"#utility.yul\":1284:1290   */\n  0x00\n    /* \"#utility.yul\":1292:1298   */\n  dup1\n    /* \"#utility.yul\":1341:1343   */\n  0x40\n    /* \"#utility.yul\":1329:1338   */\n  dup4\n    /* \"#utility.yul\":1320:1327   */\n  dup6\n    /* \"#utility.yul\":1316:1339   */\n  sub\n    /* \"#utility.yul\":1312:1344   */\n  slt\n    /* \"#utility.yul\":1309:1428   */\n  iszero\n  tag_36\n  jumpi\n    /* \"#utility.yul\":1347:1426   */\n  tag_37\n  tag_8\n  jump\t// in\ntag_37:\n    /* \"#utility.yul\":1309:1428   */\ntag_36:\n    /* \"#utility.yul\":1467:1468   */\n  0x00\n    /* \"#utility.yul\":1492:1556   */\n  tag_38\n    /* \"#utility.yul\":1548:1555   */\n  dup6\n    /* \"#utility.yul\":1539:1545   */\n  dup3\n    /* \"#utility.yul\":1528:1537   */\n  dup7\n    /* \"#utility.yul\":1524:1546   */\n  add\n    /* \"#utility.yul\":1492:1556   */\n  tag_12\n  jump\t// in\ntag_38:\n    /* \"#utility.yul\":1482:1556   */\n  swap3\n  pop\n    /* \"#utility.yul\":1438:1566   */\n  pop\n    /* \"#utility.yul\":1605:1607   */\n  0x20\n    /* \"#utility.yul\":1631:1695   */\n  tag_39\n    /* \"#utility.yul\":1687:1694   */\n  dup6\n    /* \"#utility.yul\":1678:1684   */\n  dup3\n    /* \"#utility.yul\":1667:1676   */\n  dup7\n    /* \"#utility.yul\":1663:1685   */\n  add\n    /* \"#utility.yul\":1631:1695   */\n  tag_16\n  jump\t// in\ntag_39:\n    /* \"#utility.yul\":1621:1695   */\n  swap2\n  pop\n    /* \"#utility.yul\":1576:1705   */\n  pop\n    /* \"#utility.yul\":1205:1712   */\n  swap3\n  pop\n  swap3\n  swap1\n  pop\n  jump\t// out\n    /* \"Donation.sol\":423:2476  contract Donation {... */\ntag_6:\n  dataSize(sub_0)\n  dup1\n  dataOffset(sub_0)\n  0x00\n  codecopy\n  0x00\n  return\nstop\n\nsub_0: assembly {\n        /* \"Donation.sol\":423:2476  contract Donation {... */\n      mstore(0x40, 0x80)\n      jumpi(tag_1, lt(calldatasize, 0x04))\n      shr(0xe0, calldataload(0x00))\n      dup1\n      0x8a9cfd55\n      gt\n      tag_13\n      jumpi\n      dup1\n      0x8a9cfd55\n      eq\n      tag_7\n      jumpi\n      dup1\n      0x937e09b1\n      eq\n      tag_8\n      jumpi\n      dup1\n      0xcc58b5ef\n      eq\n      tag_9\n      jumpi\n      dup1\n      0xd7bb99ba\n      eq\n      tag_10\n      jumpi\n      dup1\n      0xd7d1bbdb\n      eq\n      tag_11\n      jumpi\n      dup1\n      0xfbfa4b7f\n      eq\n      tag_12\n      jumpi\n      jump(tag_1)\n    tag_13:\n      dup1\n      0x0a144391\n      eq\n      tag_2\n      jumpi\n      dup1\n      0x481c6a75\n      eq\n      tag_3\n      jumpi\n      dup1\n      0x5b2a4cff\n      eq\n      tag_4\n      jumpi\n      dup1\n      0x81d12c58\n      eq\n      tag_5\n      jumpi\n      dup1\n      0x82fde093\n      eq\n      tag_6\n      jumpi\n    tag_1:\n      0x00\n      dup1\n      revert\n        /* \"Donation.sol\":712:753  mapping(address => bool) public approvers */\n    tag_2:\n      callvalue\n      dup1\n      iszero\n      tag_14\n      jumpi\n      0x00\n      dup1\n      revert\n    tag_14:\n      pop\n      tag_15\n      0x04\n      dup1\n      calldatasize\n      sub\n      dup2\n      add\n      swap1\n      tag_16\n      swap2\n      swap1\n      tag_17\n      jump\t// in\n    tag_16:\n      tag_18\n      jump\t// in\n    tag_15:\n      mload(0x40)\n      tag_19\n      swap2\n      swap1\n      tag_20\n      jump\t// in\n    tag_19:\n      mload(0x40)\n      dup1\n      swap2\n      sub\n      swap1\n      return\n        /* \"Donation.sol\":647:669  address public manager */\n    tag_3:\n      callvalue\n      dup1\n      iszero\n      tag_21\n      jumpi\n      0x00\n      dup1\n      revert\n    tag_21:\n      pop\n      tag_22\n      tag_23\n      jump\t// in\n    tag_22:\n      mload(0x40)\n      tag_24\n      swap2\n      swap1\n      tag_25\n      jump\t// in\n    tag_24:\n      mload(0x40)\n      dup1\n      swap2\n      sub\n      swap1\n      return\n        /* \"Donation.sol\":2206:2473  function getDetail() public view returns (... */\n    tag_4:\n      callvalue\n      dup1\n      iszero\n      tag_26\n      jumpi\n      0x00\n      dup1\n      revert\n    tag_26:\n      pop\n      tag_27\n      tag_28\n      jump\t// in\n    tag_27:\n      mload(0x40)\n      tag_29\n      swap6\n      swap5\n      swap4\n      swap3\n      swap2\n      swap1\n      tag_30\n      jump\t// in\n    tag_29:\n      mload(0x40)\n      dup1\n      swap2\n      sub\n      swap1\n      return\n        /* \"Donation.sol\":759:799  mapping(uint => Request) public requests */\n    tag_5:\n      callvalue\n      dup1\n      iszero\n      tag_31\n      jumpi\n      0x00\n      dup1\n      revert\n    tag_31:\n      pop\n      tag_32\n      0x04\n      dup1\n      calldatasize\n      sub\n      dup2\n      add\n      swap1\n      tag_33\n      swap2\n      swap1\n      tag_34\n      jump\t// in\n    tag_33:\n      tag_35\n      jump\t// in\n    tag_32:\n      mload(0x40)\n      tag_36\n      swap6\n      swap5\n      swap4\n      swap3\n      swap2\n      swap1\n      tag_37\n      jump\t// in\n    tag_36:\n      mload(0x40)\n      dup1\n      swap2\n      sub\n      swap1\n      return\n        /* \"Donation.sol\":836:862  uint public approversCount */\n    tag_6:\n      callvalue\n      dup1\n      iszero\n      tag_38\n      jumpi\n      0x00\n      dup1\n      revert\n    tag_38:\n      pop\n      tag_39\n      tag_40\n      jump\t// in\n    tag_39:\n      mload(0x40)\n      tag_41\n      swap2\n      swap1\n      tag_42\n      jump\t// in\n    tag_41:\n      mload(0x40)\n      dup1\n      swap2\n      sub\n      swap1\n      return\n        /* \"Donation.sol\":1296:1615  function createRequest(string memory description, uint value, address recipient) public isManager {... */\n    tag_7:\n      callvalue\n      dup1\n      iszero\n      tag_43\n      jumpi\n      0x00\n      dup1\n      revert\n    tag_43:\n      pop\n      tag_44\n      0x04\n      dup1\n      calldatasize\n      sub\n      dup2\n      add\n      swap1\n      tag_45\n      swap2\n      swap1\n      tag_46\n      jump\t// in\n    tag_45:\n      tag_47\n      jump\t// in\n    tag_44:\n      stop\n        /* \"Donation.sol\":675:706  uint public minimumContribution */\n    tag_8:\n      callvalue\n      dup1\n      iszero\n      tag_48\n      jumpi\n      0x00\n      dup1\n      revert\n    tag_48:\n      pop\n      tag_49\n      tag_50\n      jump\t// in\n    tag_49:\n      mload(0x40)\n      tag_51\n      swap2\n      swap1\n      tag_42\n      jump\t// in\n    tag_51:\n      mload(0x40)\n      dup1\n      swap2\n      sub\n      swap1\n      return\n        /* \"Donation.sol\":1897:2200  function finishRequest(uint index) public isManager {... */\n    tag_9:\n      callvalue\n      dup1\n      iszero\n      tag_52\n      jumpi\n      0x00\n      dup1\n      revert\n    tag_52:\n      pop\n      tag_53\n      0x04\n      dup1\n      calldatasize\n      sub\n      dup2\n      add\n      swap1\n      tag_54\n      swap2\n      swap1\n      tag_34\n      jump\t// in\n    tag_54:\n      tag_55\n      jump\t// in\n    tag_53:\n      stop\n        /* \"Donation.sol\":1076:1290  function contribute() public payable {... */\n    tag_10:\n      tag_56\n      tag_57\n      jump\t// in\n    tag_56:\n      stop\n        /* \"Donation.sol\":1621:1891  function approveRequest(uint index) public {... */\n    tag_11:\n      callvalue\n      dup1\n      iszero\n      tag_58\n      jumpi\n      0x00\n      dup1\n      revert\n    tag_58:\n      pop\n      tag_59\n      0x04\n      dup1\n      calldatasize\n      sub\n      dup2\n      add\n      swap1\n      tag_60\n      swap2\n      swap1\n      tag_34\n      jump\t// in\n    tag_60:\n      tag_61\n      jump\t// in\n    tag_59:\n      stop\n        /* \"Donation.sol\":805:830  uint public requestsCount */\n    tag_12:\n      callvalue\n      dup1\n      iszero\n      tag_62\n      jumpi\n      0x00\n      dup1\n      revert\n    tag_62:\n      pop\n      tag_63\n      tag_64\n      jump\t// in\n    tag_63:\n      mload(0x40)\n      tag_65\n      swap2\n      swap1\n      tag_42\n      jump\t// in\n    tag_65:\n      mload(0x40)\n      dup1\n      swap2\n      sub\n      swap1\n      return\n        /* \"Donation.sol\":712:753  mapping(address => bool) public approvers */\n    tag_18:\n      mstore(0x20, 0x02)\n      dup1\n      0x00\n      mstore\n      keccak256(0x00, 0x40)\n      0x00\n      swap2\n      pop\n      sload\n      swap1\n      0x0100\n      exp\n      swap1\n      div\n      0xff\n      and\n      dup2\n      jump\t// out\n        /* \"Donation.sol\":647:669  address public manager */\n    tag_23:\n      0x00\n      dup1\n      sload\n      swap1\n      0x0100\n      exp\n      swap1\n      div\n      0xffffffffffffffffffffffffffffffffffffffff\n      and\n      dup2\n      jump\t// out\n        /* \"Donation.sol\":2206:2473  function getDetail() public view returns (... */\n    tag_28:\n        /* \"Donation.sol\":2257:2264  address */\n      0x00\n        /* \"Donation.sol\":2266:2270  uint */\n      dup1\n        /* \"Donation.sol\":2272:2276  uint */\n      0x00\n        /* \"Donation.sol\":2278:2282  uint */\n      dup1\n        /* \"Donation.sol\":2284:2288  uint */\n      0x00\n        /* \"Donation.sol\":2326:2333  manager */\n      dup1\n      0x00\n      swap1\n      sload\n      swap1\n      0x0100\n      exp\n      swap1\n      div\n      0xffffffffffffffffffffffffffffffffffffffff\n      and\n        /* \"Donation.sol\":2347:2366  minimumContribution */\n      sload(0x01)\n        /* \"Donation.sol\":2380:2393  requestsCount */\n      sload(0x04)\n        /* \"Donation.sol\":2407:2421  approversCount */\n      sload(0x05)\n        /* \"Donation.sol\":2435:2456  address(this).balance */\n      selfbalance\n        /* \"Donation.sol\":2305:2466  return (... */\n      swap5\n      pop\n      swap5\n      pop\n      swap5\n      pop\n      swap5\n      pop\n      swap5\n      pop\n        /* \"Donation.sol\":2206:2473  function getDetail() public view returns (... */\n      swap1\n      swap2\n      swap3\n      swap4\n      swap5\n      jump\t// out\n        /* \"Donation.sol\":759:799  mapping(uint => Request) public requests */\n    tag_35:\n      mstore(0x20, 0x03)\n      dup1\n      0x00\n      mstore\n      keccak256(0x00, 0x40)\n      0x00\n      swap2\n      pop\n      swap1\n      pop\n      dup1\n      0x00\n      add\n      dup1\n      sload\n      tag_67\n      swap1\n      tag_68\n      jump\t// in\n    tag_67:\n      dup1\n      0x1f\n      add\n      0x20\n      dup1\n      swap2\n      div\n      mul\n      0x20\n      add\n      mload(0x40)\n      swap1\n      dup2\n      add\n      0x40\n      mstore\n      dup1\n      swap3\n      swap2\n      swap1\n      dup2\n      dup2\n      mstore\n      0x20\n      add\n      dup3\n      dup1\n      sload\n      tag_69\n      swap1\n      tag_68\n      jump\t// in\n    tag_69:\n      dup1\n      iszero\n      tag_70\n      jumpi\n      dup1\n      0x1f\n      lt\n      tag_71\n      jumpi\n      0x0100\n      dup1\n      dup4\n      sload\n      div\n      mul\n      dup4\n      mstore\n      swap2\n      0x20\n      add\n      swap2\n      jump(tag_70)\n    tag_71:\n      dup3\n      add\n      swap2\n      swap1\n      0x00\n      mstore\n      keccak256(0x00, 0x20)\n      swap1\n    tag_72:\n      dup2\n      sload\n      dup2\n      mstore\n      swap1\n      0x01\n      add\n      swap1\n      0x20\n      add\n      dup1\n      dup4\n      gt\n      tag_72\n      jumpi\n      dup3\n      swap1\n      sub\n      0x1f\n      and\n      dup3\n      add\n      swap2\n    tag_70:\n      pop\n      pop\n      pop\n      pop\n      pop\n      swap1\n      dup1\n      0x01\n      add\n      sload\n      swap1\n      dup1\n      0x02\n      add\n      0x00\n      swap1\n      sload\n      swap1\n      0x0100\n      exp\n      swap1\n      div\n      0xffffffffffffffffffffffffffffffffffffffff\n      and\n      swap1\n      dup1\n      0x02\n      add\n      0x14\n      swap1\n      sload\n      swap1\n      0x0100\n      exp\n      swap1\n      div\n      0xff\n      and\n      swap1\n      dup1\n      0x03\n      add\n      sload\n      swap1\n      pop\n      dup6\n      jump\t// out\n        /* \"Donation.sol\":836:862  uint public approversCount */\n    tag_40:\n      sload(0x05)\n      dup2\n      jump\t// out\n        /* \"Donation.sol\":1296:1615  function createRequest(string memory description, uint value, address recipient) public isManager {... */\n    tag_47:\n        /* \"Donation.sol\":922:929  manager */\n      0x00\n      dup1\n      sload\n      swap1\n      0x0100\n      exp\n      swap1\n      div\n      0xffffffffffffffffffffffffffffffffffffffff\n      and\n        /* \"Donation.sol\":908:929  msg.sender == manager */\n      0xffffffffffffffffffffffffffffffffffffffff\n      and\n        /* \"Donation.sol\":908:918  msg.sender */\n      caller\n        /* \"Donation.sol\":908:929  msg.sender == manager */\n      0xffffffffffffffffffffffffffffffffffffffff\n      and\n      eq\n        /* \"Donation.sol\":900:930  require(msg.sender == manager) */\n      tag_74\n      jumpi\n      0x00\n      dup1\n      revert\n    tag_74:\n        /* \"Donation.sol\":1404:1422  Request storage rq */\n      0x00\n        /* \"Donation.sol\":1425:1433  requests */\n      0x03\n        /* \"Donation.sol\":1425:1450  requests[requestsCount++] */\n      0x00\n        /* \"Donation.sol\":1434:1447  requestsCount */\n      0x04\n      0x00\n        /* \"Donation.sol\":1434:1449  requestsCount++ */\n      dup2\n      sload\n      dup1\n      swap3\n      swap2\n      swap1\n      tag_76\n      swap1\n      tag_77\n      jump\t// in\n    tag_76:\n      swap2\n      swap1\n      pop\n      sstore\n        /* \"Donation.sol\":1425:1450  requests[requestsCount++] */\n      dup2\n      mstore\n      0x20\n      add\n      swap1\n      dup2\n      mstore\n      0x20\n      add\n      0x00\n      keccak256\n        /* \"Donation.sol\":1404:1450  Request storage rq = requests[requestsCount++] */\n      swap1\n      pop\n        /* \"Donation.sol\":1477:1488  description */\n      dup4\n        /* \"Donation.sol\":1460:1462  rq */\n      dup2\n        /* \"Donation.sol\":1460:1474  rq.description */\n      0x00\n      add\n        /* \"Donation.sol\":1460:1488  rq.description = description */\n      swap1\n      dup1\n      mload\n      swap1\n      0x20\n      add\n      swap1\n      tag_78\n      swap3\n      swap2\n      swap1\n      tag_79\n      jump\t// in\n    tag_78:\n      pop\n        /* \"Donation.sol\":1509:1514  value */\n      dup3\n        /* \"Donation.sol\":1498:1500  rq */\n      dup2\n        /* \"Donation.sol\":1498:1506  rq.value */\n      0x01\n      add\n        /* \"Donation.sol\":1498:1514  rq.value = value */\n      dup2\n      swap1\n      sstore\n      pop\n        /* \"Donation.sol\":1539:1548  recipient */\n      dup2\n        /* \"Donation.sol\":1524:1526  rq */\n      dup2\n        /* \"Donation.sol\":1524:1536  rq.recipient */\n      0x02\n      add\n      0x00\n        /* \"Donation.sol\":1524:1548  rq.recipient = recipient */\n      0x0100\n      exp\n      dup2\n      sload\n      dup2\n      0xffffffffffffffffffffffffffffffffffffffff\n      mul\n      not\n      and\n      swap1\n      dup4\n      0xffffffffffffffffffffffffffffffffffffffff\n      and\n      mul\n      or\n      swap1\n      sstore\n      pop\n        /* \"Donation.sol\":1572:1577  false */\n      0x00\n        /* \"Donation.sol\":1558:1560  rq */\n      dup2\n        /* \"Donation.sol\":1558:1569  rq.complete */\n      0x02\n      add\n      0x14\n        /* \"Donation.sol\":1558:1577  rq.complete = false */\n      0x0100\n      exp\n      dup2\n      sload\n      dup2\n      0xff\n      mul\n      not\n      and\n      swap1\n      dup4\n      iszero\n      iszero\n      mul\n      or\n      swap1\n      sstore\n      pop\n        /* \"Donation.sol\":1607:1608  0 */\n      0x00\n        /* \"Donation.sol\":1587:1589  rq */\n      dup2\n        /* \"Donation.sol\":1587:1604  rq.approvalsCount */\n      0x03\n      add\n        /* \"Donation.sol\":1587:1608  rq.approvalsCount = 0 */\n      dup2\n      swap1\n      sstore\n      pop\n        /* \"Donation.sol\":1394:1615  {... */\n      pop\n        /* \"Donation.sol\":1296:1615  function createRequest(string memory description, uint value, address recipient) public isManager {... */\n      pop\n      pop\n      pop\n      jump\t// out\n        /* \"Donation.sol\":675:706  uint public minimumContribution */\n    tag_50:\n      sload(0x01)\n      dup2\n      jump\t// out\n        /* \"Donation.sol\":1897:2200  function finishRequest(uint index) public isManager {... */\n    tag_55:\n        /* \"Donation.sol\":922:929  manager */\n      0x00\n      dup1\n      sload\n      swap1\n      0x0100\n      exp\n      swap1\n      div\n      0xffffffffffffffffffffffffffffffffffffffff\n      and\n        /* \"Donation.sol\":908:929  msg.sender == manager */\n      0xffffffffffffffffffffffffffffffffffffffff\n      and\n        /* \"Donation.sol\":908:918  msg.sender */\n      caller\n        /* \"Donation.sol\":908:929  msg.sender == manager */\n      0xffffffffffffffffffffffffffffffffffffffff\n      and\n      eq\n        /* \"Donation.sol\":900:930  require(msg.sender == manager) */\n      tag_81\n      jumpi\n      0x00\n      dup1\n      revert\n    tag_81:\n        /* \"Donation.sol\":1959:1982  Request storage request */\n      0x00\n        /* \"Donation.sol\":1985:1993  requests */\n      0x03\n        /* \"Donation.sol\":1985:2000  requests[index] */\n      0x00\n        /* \"Donation.sol\":1994:1999  index */\n      dup4\n        /* \"Donation.sol\":1985:2000  requests[index] */\n      dup2\n      mstore\n      0x20\n      add\n      swap1\n      dup2\n      mstore\n      0x20\n      add\n      0x00\n      keccak256\n        /* \"Donation.sol\":1959:2000  Request storage request = requests[index] */\n      swap1\n      pop\n        /* \"Donation.sol\":2061:2062  2 */\n      0x02\n        /* \"Donation.sol\":2044:2058  approversCount */\n      sload(0x05)\n        /* \"Donation.sol\":2044:2062  approversCount / 2 */\n      tag_83\n      swap2\n      swap1\n      tag_84\n      jump\t// in\n    tag_83:\n        /* \"Donation.sol\":2018:2025  request */\n      dup2\n        /* \"Donation.sol\":2018:2040  request.approvalsCount */\n      0x03\n      add\n      sload\n        /* \"Donation.sol\":2018:2063  request.approvalsCount > (approversCount / 2) */\n      gt\n        /* \"Donation.sol\":2010:2064  require(request.approvalsCount > (approversCount / 2)) */\n      tag_85\n      jumpi\n      0x00\n      dup1\n      revert\n    tag_85:\n        /* \"Donation.sol\":2083:2090  request */\n      dup1\n        /* \"Donation.sol\":2083:2099  request.complete */\n      0x02\n      add\n      0x14\n      swap1\n      sload\n      swap1\n      0x0100\n      exp\n      swap1\n      div\n      0xff\n      and\n        /* \"Donation.sol\":2082:2099  !request.complete */\n      iszero\n        /* \"Donation.sol\":2074:2100  require(!request.complete) */\n      tag_86\n      jumpi\n      0x00\n      dup1\n      revert\n    tag_86:\n        /* \"Donation.sol\":2118:2125  request */\n      dup1\n        /* \"Donation.sol\":2118:2135  request.recipient */\n      0x02\n      add\n      0x00\n      swap1\n      sload\n      swap1\n      0x0100\n      exp\n      swap1\n      div\n      0xffffffffffffffffffffffffffffffffffffffff\n      and\n        /* \"Donation.sol\":2110:2145  payable(request.recipient).transfer */\n      0xffffffffffffffffffffffffffffffffffffffff\n      and\n        /* \"Donation.sol\":2110:2160  payable(request.recipient).transfer(request.value) */\n      0x08fc\n        /* \"Donation.sol\":2146:2153  request */\n      dup3\n        /* \"Donation.sol\":2146:2159  request.value */\n      0x01\n      add\n      sload\n        /* \"Donation.sol\":2110:2160  payable(request.recipient).transfer(request.value) */\n      swap1\n      dup2\n      iszero\n      mul\n      swap1\n      mload(0x40)\n      0x00\n      mload(0x40)\n      dup1\n      dup4\n      sub\n      dup2\n      dup6\n      dup9\n      dup9\n      call\n      swap4\n      pop\n      pop\n      pop\n      pop\n      iszero\n      dup1\n      iszero\n      tag_88\n      jumpi\n      returndatasize\n      0x00\n      dup1\n      returndatacopy\n      revert(0x00, returndatasize)\n    tag_88:\n      pop\n        /* \"Donation.sol\":2189:2193  true */\n      0x01\n        /* \"Donation.sol\":2170:2177  request */\n      dup2\n        /* \"Donation.sol\":2170:2186  request.complete */\n      0x02\n      add\n      0x14\n        /* \"Donation.sol\":2170:2193  request.complete = true */\n      0x0100\n      exp\n      dup2\n      sload\n      dup2\n      0xff\n      mul\n      not\n      and\n      swap1\n      dup4\n      iszero\n      iszero\n      mul\n      or\n      swap1\n      sstore\n      pop\n        /* \"Donation.sol\":1949:2200  {... */\n      pop\n        /* \"Donation.sol\":1897:2200  function finishRequest(uint index) public isManager {... */\n      pop\n      jump\t// out\n        /* \"Donation.sol\":1076:1290  function contribute() public payable {... */\n    tag_57:\n        /* \"Donation.sol\":1143:1162  minimumContribution */\n      sload(0x01)\n        /* \"Donation.sol\":1131:1140  msg.value */\n      callvalue\n        /* \"Donation.sol\":1131:1162  msg.value > minimumContribution */\n      gt\n        /* \"Donation.sol\":1123:1163  require(msg.value > minimumContribution) */\n      tag_90\n      jumpi\n      0x00\n      dup1\n      revert\n    tag_90:\n        /* \"Donation.sol\":1178:1187  approvers */\n      0x02\n        /* \"Donation.sol\":1178:1199  approvers[msg.sender] */\n      0x00\n        /* \"Donation.sol\":1188:1198  msg.sender */\n      caller\n        /* \"Donation.sol\":1178:1199  approvers[msg.sender] */\n      0xffffffffffffffffffffffffffffffffffffffff\n      and\n      0xffffffffffffffffffffffffffffffffffffffff\n      and\n      dup2\n      mstore\n      0x20\n      add\n      swap1\n      dup2\n      mstore\n      0x20\n      add\n      0x00\n      keccak256\n      0x00\n      swap1\n      sload\n      swap1\n      0x0100\n      exp\n      swap1\n      div\n      0xff\n      and\n        /* \"Donation.sol\":1173:1284  if (!approvers[msg.sender]) {... */\n      tag_91\n      jumpi\n        /* \"Donation.sol\":1239:1243  true */\n      0x01\n        /* \"Donation.sol\":1215:1224  approvers */\n      0x02\n        /* \"Donation.sol\":1215:1236  approvers[msg.sender] */\n      0x00\n        /* \"Donation.sol\":1225:1235  msg.sender */\n      caller\n        /* \"Donation.sol\":1215:1236  approvers[msg.sender] */\n      0xffffffffffffffffffffffffffffffffffffffff\n      and\n      0xffffffffffffffffffffffffffffffffffffffff\n      and\n      dup2\n      mstore\n      0x20\n      add\n      swap1\n      dup2\n      mstore\n      0x20\n      add\n      0x00\n      keccak256\n      0x00\n        /* \"Donation.sol\":1215:1243  approvers[msg.sender] = true */\n      0x0100\n      exp\n      dup2\n      sload\n      dup2\n      0xff\n      mul\n      not\n      and\n      swap1\n      dup4\n      iszero\n      iszero\n      mul\n      or\n      swap1\n      sstore\n      pop\n        /* \"Donation.sol\":1257:1271  approversCount */\n      0x05\n      0x00\n        /* \"Donation.sol\":1257:1273  approversCount++ */\n      dup2\n      sload\n      dup1\n      swap3\n      swap2\n      swap1\n      tag_92\n      swap1\n      tag_77\n      jump\t// in\n    tag_92:\n      swap2\n      swap1\n      pop\n      sstore\n      pop\n        /* \"Donation.sol\":1173:1284  if (!approvers[msg.sender]) {... */\n    tag_91:\n        /* \"Donation.sol\":1076:1290  function contribute() public payable {... */\n      jump\t// out\n        /* \"Donation.sol\":1621:1891  function approveRequest(uint index) public {... */\n    tag_61:\n        /* \"Donation.sol\":1674:1697  Request storage request */\n      0x00\n        /* \"Donation.sol\":1700:1708  requests */\n      0x03\n        /* \"Donation.sol\":1700:1715  requests[index] */\n      0x00\n        /* \"Donation.sol\":1709:1714  index */\n      dup4\n        /* \"Donation.sol\":1700:1715  requests[index] */\n      dup2\n      mstore\n      0x20\n      add\n      swap1\n      dup2\n      mstore\n      0x20\n      add\n      0x00\n      keccak256\n        /* \"Donation.sol\":1674:1715  Request storage request = requests[index] */\n      swap1\n      pop\n        /* \"Donation.sol\":1733:1742  approvers */\n      0x02\n        /* \"Donation.sol\":1733:1754  approvers[msg.sender] */\n      0x00\n        /* \"Donation.sol\":1743:1753  msg.sender */\n      caller\n        /* \"Donation.sol\":1733:1754  approvers[msg.sender] */\n      0xffffffffffffffffffffffffffffffffffffffff\n      and\n      0xffffffffffffffffffffffffffffffffffffffff\n      and\n      dup2\n      mstore\n      0x20\n      add\n      swap1\n      dup2\n      mstore\n      0x20\n      add\n      0x00\n      keccak256\n      0x00\n      swap1\n      sload\n      swap1\n      0x0100\n      exp\n      swap1\n      div\n      0xff\n      and\n        /* \"Donation.sol\":1725:1755  require(approvers[msg.sender]) */\n      tag_94\n      jumpi\n      0x00\n      dup1\n      revert\n    tag_94:\n        /* \"Donation.sol\":1774:1781  request */\n      dup1\n        /* \"Donation.sol\":1774:1791  request.approvals */\n      0x04\n      add\n        /* \"Donation.sol\":1774:1803  request.approvals[msg.sender] */\n      0x00\n        /* \"Donation.sol\":1792:1802  msg.sender */\n      caller\n        /* \"Donation.sol\":1774:1803  request.approvals[msg.sender] */\n      0xffffffffffffffffffffffffffffffffffffffff\n      and\n      0xffffffffffffffffffffffffffffffffffffffff\n      and\n      dup2\n      mstore\n      0x20\n      add\n      swap1\n      dup2\n      mstore\n      0x20\n      add\n      0x00\n      keccak256\n      0x00\n      swap1\n      sload\n      swap1\n      0x0100\n      exp\n      swap1\n      div\n      0xff\n      and\n        /* \"Donation.sol\":1773:1803  !request.approvals[msg.sender] */\n      iszero\n        /* \"Donation.sol\":1765:1804  require(!request.approvals[msg.sender]) */\n      tag_95\n      jumpi\n      0x00\n      dup1\n      revert\n    tag_95:\n        /* \"Donation.sol\":1846:1850  true */\n      0x01\n        /* \"Donation.sol\":1814:1821  request */\n      dup2\n        /* \"Donation.sol\":1814:1831  request.approvals */\n      0x04\n      add\n        /* \"Donation.sol\":1814:1843  request.approvals[msg.sender] */\n      0x00\n        /* \"Donation.sol\":1832:1842  msg.sender */\n      caller\n        /* \"Donation.sol\":1814:1843  request.approvals[msg.sender] */\n      0xffffffffffffffffffffffffffffffffffffffff\n      and\n      0xffffffffffffffffffffffffffffffffffffffff\n      and\n      dup2\n      mstore\n      0x20\n      add\n      swap1\n      dup2\n      mstore\n      0x20\n      add\n      0x00\n      keccak256\n      0x00\n        /* \"Donation.sol\":1814:1850  request.approvals[msg.sender] = true */\n      0x0100\n      exp\n      dup2\n      sload\n      dup2\n      0xff\n      mul\n      not\n      and\n      swap1\n      dup4\n      iszero\n      iszero\n      mul\n      or\n      swap1\n      sstore\n      pop\n        /* \"Donation.sol\":1860:1867  request */\n      dup1\n        /* \"Donation.sol\":1860:1882  request.approvalsCount */\n      0x03\n      add\n      0x00\n        /* \"Donation.sol\":1860:1884  request.approvalsCount++ */\n      dup2\n      sload\n      dup1\n      swap3\n      swap2\n      swap1\n      tag_96\n      swap1\n      tag_77\n      jump\t// in\n    tag_96:\n      swap2\n      swap1\n      pop\n      sstore\n      pop\n        /* \"Donation.sol\":1664:1891  {... */\n      pop\n        /* \"Donation.sol\":1621:1891  function approveRequest(uint index) public {... */\n      pop\n      jump\t// out\n        /* \"Donation.sol\":805:830  uint public requestsCount */\n    tag_64:\n      sload(0x04)\n      dup2\n      jump\t// out\n    tag_79:\n      dup3\n      dup1\n      sload\n      tag_97\n      swap1\n      tag_68\n      jump\t// in\n    tag_97:\n      swap1\n      0x00\n      mstore\n      keccak256(0x00, 0x20)\n      swap1\n      0x1f\n      add\n      0x20\n      swap1\n      div\n      dup2\n      add\n      swap3\n      dup3\n      tag_99\n      jumpi\n      0x00\n      dup6\n      sstore\n      jump(tag_98)\n    tag_99:\n      dup3\n      0x1f\n      lt\n      tag_100\n      jumpi\n      dup1\n      mload\n      not(0xff)\n      and\n      dup4\n      dup1\n      add\n      or\n      dup6\n      sstore\n      jump(tag_98)\n    tag_100:\n      dup3\n      dup1\n      add\n      0x01\n      add\n      dup6\n      sstore\n      dup3\n      iszero\n      tag_98\n      jumpi\n      swap2\n      dup3\n      add\n    tag_101:\n      dup3\n      dup2\n      gt\n      iszero\n      tag_102\n      jumpi\n      dup3\n      mload\n      dup3\n      sstore\n      swap2\n      0x20\n      add\n      swap2\n      swap1\n      0x01\n      add\n      swap1\n      jump(tag_101)\n    tag_102:\n    tag_98:\n      pop\n      swap1\n      pop\n      tag_103\n      swap2\n      swap1\n      tag_104\n      jump\t// in\n    tag_103:\n      pop\n      swap1\n      jump\t// out\n    tag_104:\n    tag_105:\n      dup1\n      dup3\n      gt\n      iszero\n      tag_106\n      jumpi\n      0x00\n      dup2\n      0x00\n      swap1\n      sstore\n      pop\n      0x01\n      add\n      jump(tag_105)\n    tag_106:\n      pop\n      swap1\n      jump\t// out\n        /* \"#utility.yul\":7:82   */\n    tag_107:\n        /* \"#utility.yul\":40:46   */\n      0x00\n        /* \"#utility.yul\":73:75   */\n      0x40\n        /* \"#utility.yul\":67:76   */\n      mload\n        /* \"#utility.yul\":57:76   */\n      swap1\n      pop\n        /* \"#utility.yul\":7:82   */\n      swap1\n      jump\t// out\n        /* \"#utility.yul\":88:205   */\n    tag_108:\n        /* \"#utility.yul\":197:198   */\n      0x00\n        /* \"#utility.yul\":194:195   */\n      dup1\n        /* \"#utility.yul\":187:199   */\n      revert\n        /* \"#utility.yul\":211:328   */\n    tag_109:\n        /* \"#utility.yul\":320:321   */\n      0x00\n        /* \"#utility.yul\":317:318   */\n      dup1\n        /* \"#utility.yul\":310:322   */\n      revert\n        /* \"#utility.yul\":334:460   */\n    tag_110:\n        /* \"#utility.yul\":371:378   */\n      0x00\n        /* \"#utility.yul\":411:453   */\n      0xffffffffffffffffffffffffffffffffffffffff\n        /* \"#utility.yul\":404:409   */\n      dup3\n        /* \"#utility.yul\":400:454   */\n      and\n        /* \"#utility.yul\":389:454   */\n      swap1\n      pop\n        /* \"#utility.yul\":334:460   */\n      swap2\n      swap1\n      pop\n      jump\t// out\n        /* \"#utility.yul\":466:562   */\n    tag_111:\n        /* \"#utility.yul\":503:510   */\n      0x00\n        /* \"#utility.yul\":532:556   */\n      tag_144\n        /* \"#utility.yul\":550:555   */\n      dup3\n        /* \"#utility.yul\":532:556   */\n      tag_110\n      jump\t// in\n    tag_144:\n        /* \"#utility.yul\":521:556   */\n      swap1\n      pop\n        /* \"#utility.yul\":466:562   */\n      swap2\n      swap1\n      pop\n      jump\t// out\n        /* \"#utility.yul\":568:690   */\n    tag_112:\n        /* \"#utility.yul\":641:665   */\n      tag_146\n        /* \"#utility.yul\":659:664   */\n      dup2\n        /* \"#utility.yul\":641:665   */\n      tag_111\n      jump\t// in\n    tag_146:\n        /* \"#utility.yul\":634:639   */\n      dup2\n        /* \"#utility.yul\":631:666   */\n      eq\n        /* \"#utility.yul\":621:684   */\n      tag_147\n      jumpi\n        /* \"#utility.yul\":680:681   */\n      0x00\n        /* \"#utility.yul\":677:678   */\n      dup1\n        /* \"#utility.yul\":670:682   */\n      revert\n        /* \"#utility.yul\":621:684   */\n    tag_147:\n        /* \"#utility.yul\":568:690   */\n      pop\n      jump\t// out\n        /* \"#utility.yul\":696:835   */\n    tag_113:\n        /* \"#utility.yul\":742:747   */\n      0x00\n        /* \"#utility.yul\":780:786   */\n      dup2\n        /* \"#utility.yul\":767:787   */\n      calldataload\n        /* \"#utility.yul\":758:787   */\n      swap1\n      pop\n        /* \"#utility.yul\":796:829   */\n      tag_149\n        /* \"#utility.yul\":823:828   */\n      dup2\n        /* \"#utility.yul\":796:829   */\n      tag_112\n      jump\t// in\n    tag_149:\n        /* \"#utility.yul\":696:835   */\n      swap3\n      swap2\n      pop\n      pop\n      jump\t// out\n        /* \"#utility.yul\":841:1170   */\n    tag_17:\n        /* \"#utility.yul\":900:906   */\n      0x00\n        /* \"#utility.yul\":949:951   */\n      0x20\n        /* \"#utility.yul\":937:946   */\n      dup3\n        /* \"#utility.yul\":928:935   */\n      dup5\n        /* \"#utility.yul\":924:947   */\n      sub\n        /* \"#utility.yul\":920:952   */\n      slt\n        /* \"#utility.yul\":917:1036   */\n      iszero\n      tag_151\n      jumpi\n        /* \"#utility.yul\":955:1034   */\n      tag_152\n      tag_108\n      jump\t// in\n    tag_152:\n        /* \"#utility.yul\":917:1036   */\n    tag_151:\n        /* \"#utility.yul\":1075:1076   */\n      0x00\n        /* \"#utility.yul\":1100:1153   */\n      tag_153\n        /* \"#utility.yul\":1145:1152   */\n      dup5\n        /* \"#utility.yul\":1136:1142   */\n      dup3\n        /* \"#utility.yul\":1125:1134   */\n      dup6\n        /* \"#utility.yul\":1121:1143   */\n      add\n        /* \"#utility.yul\":1100:1153   */\n      tag_113\n      jump\t// in\n    tag_153:\n        /* \"#utility.yul\":1090:1153   */\n      swap2\n      pop\n        /* \"#utility.yul\":1046:1163   */\n      pop\n        /* \"#utility.yul\":841:1170   */\n      swap3\n      swap2\n      pop\n      pop\n      jump\t// out\n        /* \"#utility.yul\":1176:1266   */\n    tag_114:\n        /* \"#utility.yul\":1210:1217   */\n      0x00\n        /* \"#utility.yul\":1253:1258   */\n      dup2\n        /* \"#utility.yul\":1246:1259   */\n      iszero\n        /* \"#utility.yul\":1239:1260   */\n      iszero\n        /* \"#utility.yul\":1228:1260   */\n      swap1\n      pop\n        /* \"#utility.yul\":1176:1266   */\n      swap2\n      swap1\n      pop\n      jump\t// out\n        /* \"#utility.yul\":1272:1381   */\n    tag_115:\n        /* \"#utility.yul\":1353:1374   */\n      tag_156\n        /* \"#utility.yul\":1368:1373   */\n      dup2\n        /* \"#utility.yul\":1353:1374   */\n      tag_114\n      jump\t// in\n    tag_156:\n        /* \"#utility.yul\":1348:1351   */\n      dup3\n        /* \"#utility.yul\":1341:1375   */\n      mstore\n        /* \"#utility.yul\":1272:1381   */\n      pop\n      pop\n      jump\t// out\n        /* \"#utility.yul\":1387:1597   */\n    tag_20:\n        /* \"#utility.yul\":1474:1478   */\n      0x00\n        /* \"#utility.yul\":1512:1514   */\n      0x20\n        /* \"#utility.yul\":1501:1510   */\n      dup3\n        /* \"#utility.yul\":1497:1515   */\n      add\n        /* \"#utility.yul\":1489:1515   */\n      swap1\n      pop\n        /* \"#utility.yul\":1525:1590   */\n      tag_158\n        /* \"#utility.yul\":1587:1588   */\n      0x00\n        /* \"#utility.yul\":1576:1585   */\n      dup4\n        /* \"#utility.yul\":1572:1589   */\n      add\n        /* \"#utility.yul\":1563:1569   */\n      dup5\n        /* \"#utility.yul\":1525:1590   */\n      tag_115\n      jump\t// in\n    tag_158:\n        /* \"#utility.yul\":1387:1597   */\n      swap3\n      swap2\n      pop\n      pop\n      jump\t// out\n        /* \"#utility.yul\":1603:1721   */\n    tag_116:\n        /* \"#utility.yul\":1690:1714   */\n      tag_160\n        /* \"#utility.yul\":1708:1713   */\n      dup2\n        /* \"#utility.yul\":1690:1714   */\n      tag_111\n      jump\t// in\n    tag_160:\n        /* \"#utility.yul\":1685:1688   */\n      dup3\n        /* \"#utility.yul\":1678:1715   */\n      mstore\n        /* \"#utility.yul\":1603:1721   */\n      pop\n      pop\n      jump\t// out\n        /* \"#utility.yul\":1727:1949   */\n    tag_25:\n        /* \"#utility.yul\":1820:1824   */\n      0x00\n        /* \"#utility.yul\":1858:1860   */\n      0x20\n        /* \"#utility.yul\":1847:1856   */\n      dup3\n        /* \"#utility.yul\":1843:1861   */\n      add\n        /* \"#utility.yul\":1835:1861   */\n      swap1\n      pop\n        /* \"#utility.yul\":1871:1942   */\n      tag_162\n        /* \"#utility.yul\":1939:1940   */\n      0x00\n        /* \"#utility.yul\":1928:1937   */\n      dup4\n        /* \"#utility.yul\":1924:1941   */\n      add\n        /* \"#utility.yul\":1915:1921   */\n      dup5\n        /* \"#utility.yul\":1871:1942   */\n      tag_116\n      jump\t// in\n    tag_162:\n        /* \"#utility.yul\":1727:1949   */\n      swap3\n      swap2\n      pop\n      pop\n      jump\t// out\n        /* \"#utility.yul\":1955:2032   */\n    tag_117:\n        /* \"#utility.yul\":1992:1999   */\n      0x00\n        /* \"#utility.yul\":2021:2026   */\n      dup2\n        /* \"#utility.yul\":2010:2026   */\n      swap1\n      pop\n        /* \"#utility.yul\":1955:2032   */\n      swap2\n      swap1\n      pop\n      jump\t// out\n        /* \"#utility.yul\":2038:2156   */\n    tag_118:\n        /* \"#utility.yul\":2125:2149   */\n      tag_165\n        /* \"#utility.yul\":2143:2148   */\n      dup2\n        /* \"#utility.yul\":2125:2149   */\n      tag_117\n      jump\t// in\n    tag_165:\n        /* \"#utility.yul\":2120:2123   */\n      dup3\n        /* \"#utility.yul\":2113:2150   */\n      mstore\n        /* \"#utility.yul\":2038:2156   */\n      pop\n      pop\n      jump\t// out\n        /* \"#utility.yul\":2162:2826   */\n    tag_30:\n        /* \"#utility.yul\":2367:2371   */\n      0x00\n        /* \"#utility.yul\":2405:2408   */\n      0xa0\n        /* \"#utility.yul\":2394:2403   */\n      dup3\n        /* \"#utility.yul\":2390:2409   */\n      add\n        /* \"#utility.yul\":2382:2409   */\n      swap1\n      pop\n        /* \"#utility.yul\":2419:2490   */\n      tag_167\n        /* \"#utility.yul\":2487:2488   */\n      0x00\n        /* \"#utility.yul\":2476:2485   */\n      dup4\n        /* \"#utility.yul\":2472:2489   */\n      add\n        /* \"#utility.yul\":2463:2469   */\n      dup9\n        /* \"#utility.yul\":2419:2490   */\n      tag_116\n      jump\t// in\n    tag_167:\n        /* \"#utility.yul\":2500:2572   */\n      tag_168\n        /* \"#utility.yul\":2568:2570   */\n      0x20\n        /* \"#utility.yul\":2557:2566   */\n      dup4\n        /* \"#utility.yul\":2553:2571   */\n      add\n        /* \"#utility.yul\":2544:2550   */\n      dup8\n        /* \"#utility.yul\":2500:2572   */\n      tag_118\n      jump\t// in\n    tag_168:\n        /* \"#utility.yul\":2582:2654   */\n      tag_169\n        /* \"#utility.yul\":2650:2652   */\n      0x40\n        /* \"#utility.yul\":2639:2648   */\n      dup4\n        /* \"#utility.yul\":2635:2653   */\n      add\n        /* \"#utility.yul\":2626:2632   */\n      dup7\n        /* \"#utility.yul\":2582:2654   */\n      tag_118\n      jump\t// in\n    tag_169:\n        /* \"#utility.yul\":2664:2736   */\n      tag_170\n        /* \"#utility.yul\":2732:2734   */\n      0x60\n        /* \"#utility.yul\":2721:2730   */\n      dup4\n        /* \"#utility.yul\":2717:2735   */\n      add\n        /* \"#utility.yul\":2708:2714   */\n      dup6\n        /* \"#utility.yul\":2664:2736   */\n      tag_118\n      jump\t// in\n    tag_170:\n        /* \"#utility.yul\":2746:2819   */\n      tag_171\n        /* \"#utility.yul\":2814:2817   */\n      0x80\n        /* \"#utility.yul\":2803:2812   */\n      dup4\n        /* \"#utility.yul\":2799:2818   */\n      add\n        /* \"#utility.yul\":2790:2796   */\n      dup5\n        /* \"#utility.yul\":2746:2819   */\n      tag_118\n      jump\t// in\n    tag_171:\n        /* \"#utility.yul\":2162:2826   */\n      swap7\n      swap6\n      pop\n      pop\n      pop\n      pop\n      pop\n      pop\n      jump\t// out\n        /* \"#utility.yul\":2832:2954   */\n    tag_119:\n        /* \"#utility.yul\":2905:2929   */\n      tag_173\n        /* \"#utility.yul\":2923:2928   */\n      dup2\n        /* \"#utility.yul\":2905:2929   */\n      tag_117\n      jump\t// in\n    tag_173:\n        /* \"#utility.yul\":2898:2903   */\n      dup2\n        /* \"#utility.yul\":2895:2930   */\n      eq\n        /* \"#utility.yul\":2885:2948   */\n      tag_174\n      jumpi\n        /* \"#utility.yul\":2944:2945   */\n      0x00\n        /* \"#utility.yul\":2941:2942   */\n      dup1\n        /* \"#utility.yul\":2934:2946   */\n      revert\n        /* \"#utility.yul\":2885:2948   */\n    tag_174:\n        /* \"#utility.yul\":2832:2954   */\n      pop\n      jump\t// out\n        /* \"#utility.yul\":2960:3099   */\n    tag_120:\n        /* \"#utility.yul\":3006:3011   */\n      0x00\n        /* \"#utility.yul\":3044:3050   */\n      dup2\n        /* \"#utility.yul\":3031:3051   */\n      calldataload\n        /* \"#utility.yul\":3022:3051   */\n      swap1\n      pop\n        /* \"#utility.yul\":3060:3093   */\n      tag_176\n        /* \"#utility.yul\":3087:3092   */\n      dup2\n        /* \"#utility.yul\":3060:3093   */\n      tag_119\n      jump\t// in\n    tag_176:\n        /* \"#utility.yul\":2960:3099   */\n      swap3\n      swap2\n      pop\n      pop\n      jump\t// out\n        /* \"#utility.yul\":3105:3434   */\n    tag_34:\n        /* \"#utility.yul\":3164:3170   */\n      0x00\n        /* \"#utility.yul\":3213:3215   */\n      0x20\n        /* \"#utility.yul\":3201:3210   */\n      dup3\n        /* \"#utility.yul\":3192:3199   */\n      dup5\n        /* \"#utility.yul\":3188:3211   */\n      sub\n        /* \"#utility.yul\":3184:3216   */\n      slt\n        /* \"#utility.yul\":3181:3300   */\n      iszero\n      tag_178\n      jumpi\n        /* \"#utility.yul\":3219:3298   */\n      tag_179\n      tag_108\n      jump\t// in\n    tag_179:\n        /* \"#utility.yul\":3181:3300   */\n    tag_178:\n        /* \"#utility.yul\":3339:3340   */\n      0x00\n        /* \"#utility.yul\":3364:3417   */\n      tag_180\n        /* \"#utility.yul\":3409:3416   */\n      dup5\n        /* \"#utility.yul\":3400:3406   */\n      dup3\n        /* \"#utility.yul\":3389:3398   */\n      dup6\n        /* \"#utility.yul\":3385:3407   */\n      add\n        /* \"#utility.yul\":3364:3417   */\n      tag_120\n      jump\t// in\n    tag_180:\n        /* \"#utility.yul\":3354:3417   */\n      swap2\n      pop\n        /* \"#utility.yul\":3310:3427   */\n      pop\n        /* \"#utility.yul\":3105:3434   */\n      swap3\n      swap2\n      pop\n      pop\n      jump\t// out\n        /* \"#utility.yul\":3440:3539   */\n    tag_121:\n        /* \"#utility.yul\":3492:3498   */\n      0x00\n        /* \"#utility.yul\":3526:3531   */\n      dup2\n        /* \"#utility.yul\":3520:3532   */\n      mload\n        /* \"#utility.yul\":3510:3532   */\n      swap1\n      pop\n        /* \"#utility.yul\":3440:3539   */\n      swap2\n      swap1\n      pop\n      jump\t// out\n        /* \"#utility.yul\":3545:3714   */\n    tag_122:\n        /* \"#utility.yul\":3629:3640   */\n      0x00\n        /* \"#utility.yul\":3663:3669   */\n      dup3\n        /* \"#utility.yul\":3658:3661   */\n      dup3\n        /* \"#utility.yul\":3651:3670   */\n      mstore\n        /* \"#utility.yul\":3703:3707   */\n      0x20\n        /* \"#utility.yul\":3698:3701   */\n      dup3\n        /* \"#utility.yul\":3694:3708   */\n      add\n        /* \"#utility.yul\":3679:3708   */\n      swap1\n      pop\n        /* \"#utility.yul\":3545:3714   */\n      swap3\n      swap2\n      pop\n      pop\n      jump\t// out\n        /* \"#utility.yul\":3720:4027   */\n    tag_123:\n        /* \"#utility.yul\":3788:3789   */\n      0x00\n        /* \"#utility.yul\":3798:3911   */\n    tag_184:\n        /* \"#utility.yul\":3812:3818   */\n      dup4\n        /* \"#utility.yul\":3809:3810   */\n      dup2\n        /* \"#utility.yul\":3806:3819   */\n      lt\n        /* \"#utility.yul\":3798:3911   */\n      iszero\n      tag_186\n      jumpi\n        /* \"#utility.yul\":3897:3898   */\n      dup1\n        /* \"#utility.yul\":3892:3895   */\n      dup3\n        /* \"#utility.yul\":3888:3899   */\n      add\n        /* \"#utility.yul\":3882:3900   */\n      mload\n        /* \"#utility.yul\":3878:3879   */\n      dup2\n        /* \"#utility.yul\":3873:3876   */\n      dup5\n        /* \"#utility.yul\":3869:3880   */\n      add\n        /* \"#utility.yul\":3862:3901   */\n      mstore\n        /* \"#utility.yul\":3834:3836   */\n      0x20\n        /* \"#utility.yul\":3831:3832   */\n      dup2\n        /* \"#utility.yul\":3827:3837   */\n      add\n        /* \"#utility.yul\":3822:3837   */\n      swap1\n      pop\n        /* \"#utility.yul\":3798:3911   */\n      jump(tag_184)\n    tag_186:\n        /* \"#utility.yul\":3929:3935   */\n      dup4\n        /* \"#utility.yul\":3926:3927   */\n      dup2\n        /* \"#utility.yul\":3923:3936   */\n      gt\n        /* \"#utility.yul\":3920:4021   */\n      iszero\n      tag_187\n      jumpi\n        /* \"#utility.yul\":4009:4010   */\n      0x00\n        /* \"#utility.yul\":4000:4006   */\n      dup5\n        /* \"#utility.yul\":3995:3998   */\n      dup5\n        /* \"#utility.yul\":3991:4007   */\n      add\n        /* \"#utility.yul\":3984:4011   */\n      mstore\n        /* \"#utility.yul\":3920:4021   */\n    tag_187:\n        /* \"#utility.yul\":3769:4027   */\n      pop\n        /* \"#utility.yul\":3720:4027   */\n      pop\n      pop\n      pop\n      jump\t// out\n        /* \"#utility.yul\":4033:4135   */\n    tag_124:\n        /* \"#utility.yul\":4074:4080   */\n      0x00\n        /* \"#utility.yul\":4125:4127   */\n      0x1f\n        /* \"#utility.yul\":4121:4128   */\n      not\n        /* \"#utility.yul\":4116:4118   */\n      0x1f\n        /* \"#utility.yul\":4109:4114   */\n      dup4\n        /* \"#utility.yul\":4105:4119   */\n      add\n        /* \"#utility.yul\":4101:4129   */\n      and\n        /* \"#utility.yul\":4091:4129   */\n      swap1\n      pop\n        /* \"#utility.yul\":4033:4135   */\n      swap2\n      swap1\n      pop\n      jump\t// out\n        /* \"#utility.yul\":4141:4505   */\n    tag_125:\n        /* \"#utility.yul\":4229:4232   */\n      0x00\n        /* \"#utility.yul\":4257:4296   */\n      tag_190\n        /* \"#utility.yul\":4290:4295   */\n      dup3\n        /* \"#utility.yul\":4257:4296   */\n      tag_121\n      jump\t// in\n    tag_190:\n        /* \"#utility.yul\":4312:4383   */\n      tag_191\n        /* \"#utility.yul\":4376:4382   */\n      dup2\n        /* \"#utility.yul\":4371:4374   */\n      dup6\n        /* \"#utility.yul\":4312:4383   */\n      tag_122\n      jump\t// in\n    tag_191:\n        /* \"#utility.yul\":4305:4383   */\n      swap4\n      pop\n        /* \"#utility.yul\":4392:4444   */\n      tag_192\n        /* \"#utility.yul\":4437:4443   */\n      dup2\n        /* \"#utility.yul\":4432:4435   */\n      dup6\n        /* \"#utility.yul\":4425:4429   */\n      0x20\n        /* \"#utility.yul\":4418:4423   */\n      dup7\n        /* \"#utility.yul\":4414:4430   */\n      add\n        /* \"#utility.yul\":4392:4444   */\n      tag_123\n      jump\t// in\n    tag_192:\n        /* \"#utility.yul\":4469:4498   */\n      tag_193\n        /* \"#utility.yul\":4491:4497   */\n      dup2\n        /* \"#utility.yul\":4469:4498   */\n      tag_124\n      jump\t// in\n    tag_193:\n        /* \"#utility.yul\":4464:4467   */\n      dup5\n        /* \"#utility.yul\":4460:4499   */\n      add\n        /* \"#utility.yul\":4453:4499   */\n      swap2\n      pop\n        /* \"#utility.yul\":4233:4505   */\n      pop\n        /* \"#utility.yul\":4141:4505   */\n      swap3\n      swap2\n      pop\n      pop\n      jump\t// out\n        /* \"#utility.yul\":4511:5254   */\n    tag_37:\n        /* \"#utility.yul\":4730:4734   */\n      0x00\n        /* \"#utility.yul\":4768:4771   */\n      0xa0\n        /* \"#utility.yul\":4757:4766   */\n      dup3\n        /* \"#utility.yul\":4753:4772   */\n      add\n        /* \"#utility.yul\":4745:4772   */\n      swap1\n      pop\n        /* \"#utility.yul\":4818:4827   */\n      dup2\n        /* \"#utility.yul\":4812:4816   */\n      dup2\n        /* \"#utility.yul\":4808:4828   */\n      sub\n        /* \"#utility.yul\":4804:4805   */\n      0x00\n        /* \"#utility.yul\":4793:4802   */\n      dup4\n        /* \"#utility.yul\":4789:4806   */\n      add\n        /* \"#utility.yul\":4782:4829   */\n      mstore\n        /* \"#utility.yul\":4846:4924   */\n      tag_195\n        /* \"#utility.yul\":4919:4923   */\n      dup2\n        /* \"#utility.yul\":4910:4916   */\n      dup9\n        /* \"#utility.yul\":4846:4924   */\n      tag_125\n      jump\t// in\n    tag_195:\n        /* \"#utility.yul\":4838:4924   */\n      swap1\n      pop\n        /* \"#utility.yul\":4934:5006   */\n      tag_196\n        /* \"#utility.yul\":5002:5004   */\n      0x20\n        /* \"#utility.yul\":4991:5000   */\n      dup4\n        /* \"#utility.yul\":4987:5005   */\n      add\n        /* \"#utility.yul\":4978:4984   */\n      dup8\n        /* \"#utility.yul\":4934:5006   */\n      tag_118\n      jump\t// in\n    tag_196:\n        /* \"#utility.yul\":5016:5088   */\n      tag_197\n        /* \"#utility.yul\":5084:5086   */\n      0x40\n        /* \"#utility.yul\":5073:5082   */\n      dup4\n        /* \"#utility.yul\":5069:5087   */\n      add\n        /* \"#utility.yul\":5060:5066   */\n      dup7\n        /* \"#utility.yul\":5016:5088   */\n      tag_116\n      jump\t// in\n    tag_197:\n        /* \"#utility.yul\":5098:5164   */\n      tag_198\n        /* \"#utility.yul\":5160:5162   */\n      0x60\n        /* \"#utility.yul\":5149:5158   */\n      dup4\n        /* \"#utility.yul\":5145:5163   */\n      add\n        /* \"#utility.yul\":5136:5142   */\n      dup6\n        /* \"#utility.yul\":5098:5164   */\n      tag_115\n      jump\t// in\n    tag_198:\n        /* \"#utility.yul\":5174:5247   */\n      tag_199\n        /* \"#utility.yul\":5242:5245   */\n      0x80\n        /* \"#utility.yul\":5231:5240   */\n      dup4\n        /* \"#utility.yul\":5227:5246   */\n      add\n        /* \"#utility.yul\":5218:5224   */\n      dup5\n        /* \"#utility.yul\":5174:5247   */\n      tag_118\n      jump\t// in\n    tag_199:\n        /* \"#utility.yul\":4511:5254   */\n      swap7\n      swap6\n      pop\n      pop\n      pop\n      pop\n      pop\n      pop\n      jump\t// out\n        /* \"#utility.yul\":5260:5482   */\n    tag_42:\n        /* \"#utility.yul\":5353:5357   */\n      0x00\n        /* \"#utility.yul\":5391:5393   */\n      0x20\n        /* \"#utility.yul\":5380:5389   */\n      dup3\n        /* \"#utility.yul\":5376:5394   */\n      add\n        /* \"#utility.yul\":5368:5394   */\n      swap1\n      pop\n        /* \"#utility.yul\":5404:5475   */\n      tag_201\n        /* \"#utility.yul\":5472:5473   */\n      0x00\n        /* \"#utility.yul\":5461:5470   */\n      dup4\n        /* \"#utility.yul\":5457:5474   */\n      add\n        /* \"#utility.yul\":5448:5454   */\n      dup5\n        /* \"#utility.yul\":5404:5475   */\n      tag_118\n      jump\t// in\n    tag_201:\n        /* \"#utility.yul\":5260:5482   */\n      swap3\n      swap2\n      pop\n      pop\n      jump\t// out\n        /* \"#utility.yul\":5488:5605   */\n    tag_126:\n        /* \"#utility.yul\":5597:5598   */\n      0x00\n        /* \"#utility.yul\":5594:5595   */\n      dup1\n        /* \"#utility.yul\":5587:5599   */\n      revert\n        /* \"#utility.yul\":5611:5728   */\n    tag_127:\n        /* \"#utility.yul\":5720:5721   */\n      0x00\n        /* \"#utility.yul\":5717:5718   */\n      dup1\n        /* \"#utility.yul\":5710:5722   */\n      revert\n        /* \"#utility.yul\":5734:5914   */\n    tag_128:\n        /* \"#utility.yul\":5782:5859   */\n      0x4e487b7100000000000000000000000000000000000000000000000000000000\n        /* \"#utility.yul\":5779:5780   */\n      0x00\n        /* \"#utility.yul\":5772:5860   */\n      mstore\n        /* \"#utility.yul\":5879:5883   */\n      0x41\n        /* \"#utility.yul\":5876:5877   */\n      0x04\n        /* \"#utility.yul\":5869:5884   */\n      mstore\n        /* \"#utility.yul\":5903:5907   */\n      0x24\n        /* \"#utility.yul\":5900:5901   */\n      0x00\n        /* \"#utility.yul\":5893:5908   */\n      revert\n        /* \"#utility.yul\":5920:6201   */\n    tag_129:\n        /* \"#utility.yul\":6003:6030   */\n      tag_206\n        /* \"#utility.yul\":6025:6029   */\n      dup3\n        /* \"#utility.yul\":6003:6030   */\n      tag_124\n      jump\t// in\n    tag_206:\n        /* \"#utility.yul\":5995:6001   */\n      dup2\n        /* \"#utility.yul\":5991:6031   */\n      add\n        /* \"#utility.yul\":6133:6139   */\n      dup2\n        /* \"#utility.yul\":6121:6131   */\n      dup2\n        /* \"#utility.yul\":6118:6140   */\n      lt\n        /* \"#utility.yul\":6097:6115   */\n      0xffffffffffffffff\n        /* \"#utility.yul\":6085:6095   */\n      dup3\n        /* \"#utility.yul\":6082:6116   */\n      gt\n        /* \"#utility.yul\":6079:6141   */\n      or\n        /* \"#utility.yul\":6076:6164   */\n      iszero\n      tag_207\n      jumpi\n        /* \"#utility.yul\":6144:6162   */\n      tag_208\n      tag_128\n      jump\t// in\n    tag_208:\n        /* \"#utility.yul\":6076:6164   */\n    tag_207:\n        /* \"#utility.yul\":6184:6194   */\n      dup1\n        /* \"#utility.yul\":6180:6182   */\n      0x40\n        /* \"#utility.yul\":6173:6195   */\n      mstore\n        /* \"#utility.yul\":5963:6201   */\n      pop\n        /* \"#utility.yul\":5920:6201   */\n      pop\n      pop\n      jump\t// out\n        /* \"#utility.yul\":6207:6336   */\n    tag_130:\n        /* \"#utility.yul\":6241:6247   */\n      0x00\n        /* \"#utility.yul\":6268:6288   */\n      tag_210\n      tag_107\n      jump\t// in\n    tag_210:\n        /* \"#utility.yul\":6258:6288   */\n      swap1\n      pop\n        /* \"#utility.yul\":6297:6330   */\n      tag_211\n        /* \"#utility.yul\":6325:6329   */\n      dup3\n        /* \"#utility.yul\":6317:6323   */\n      dup3\n        /* \"#utility.yul\":6297:6330   */\n      tag_129\n      jump\t// in\n    tag_211:\n        /* \"#utility.yul\":6207:6336   */\n      swap2\n      swap1\n      pop\n      jump\t// out\n        /* \"#utility.yul\":6342:6650   */\n    tag_131:\n        /* \"#utility.yul\":6404:6408   */\n      0x00\n        /* \"#utility.yul\":6494:6512   */\n      0xffffffffffffffff\n        /* \"#utility.yul\":6486:6492   */\n      dup3\n        /* \"#utility.yul\":6483:6513   */\n      gt\n        /* \"#utility.yul\":6480:6536   */\n      iszero\n      tag_213\n      jumpi\n        /* \"#utility.yul\":6516:6534   */\n      tag_214\n      tag_128\n      jump\t// in\n    tag_214:\n        /* \"#utility.yul\":6480:6536   */\n    tag_213:\n        /* \"#utility.yul\":6554:6583   */\n      tag_215\n        /* \"#utility.yul\":6576:6582   */\n      dup3\n        /* \"#utility.yul\":6554:6583   */\n      tag_124\n      jump\t// in\n    tag_215:\n        /* \"#utility.yul\":6546:6583   */\n      swap1\n      pop\n        /* \"#utility.yul\":6638:6642   */\n      0x20\n        /* \"#utility.yul\":6632:6636   */\n      dup2\n        /* \"#utility.yul\":6628:6643   */\n      add\n        /* \"#utility.yul\":6620:6643   */\n      swap1\n      pop\n        /* \"#utility.yul\":6342:6650   */\n      swap2\n      swap1\n      pop\n      jump\t// out\n        /* \"#utility.yul\":6656:6810   */\n    tag_132:\n        /* \"#utility.yul\":6740:6746   */\n      dup3\n        /* \"#utility.yul\":6735:6738   */\n      dup2\n        /* \"#utility.yul\":6730:6733   */\n      dup4\n        /* \"#utility.yul\":6717:6747   */\n      calldatacopy\n        /* \"#utility.yul\":6802:6803   */\n      0x00\n        /* \"#utility.yul\":6793:6799   */\n      dup4\n        /* \"#utility.yul\":6788:6791   */\n      dup4\n        /* \"#utility.yul\":6784:6800   */\n      add\n        /* \"#utility.yul\":6777:6804   */\n      mstore\n        /* \"#utility.yul\":6656:6810   */\n      pop\n      pop\n      pop\n      jump\t// out\n        /* \"#utility.yul\":6816:7228   */\n    tag_133:\n        /* \"#utility.yul\":6894:6899   */\n      0x00\n        /* \"#utility.yul\":6919:6985   */\n      tag_218\n        /* \"#utility.yul\":6935:6984   */\n      tag_219\n        /* \"#utility.yul\":6977:6983   */\n      dup5\n        /* \"#utility.yul\":6935:6984   */\n      tag_131\n      jump\t// in\n    tag_219:\n        /* \"#utility.yul\":6919:6985   */\n      tag_130\n      jump\t// in\n    tag_218:\n        /* \"#utility.yul\":6910:6985   */\n      swap1\n      pop\n        /* \"#utility.yul\":7008:7014   */\n      dup3\n        /* \"#utility.yul\":7001:7006   */\n      dup2\n        /* \"#utility.yul\":6994:7015   */\n      mstore\n        /* \"#utility.yul\":7046:7050   */\n      0x20\n        /* \"#utility.yul\":7039:7044   */\n      dup2\n        /* \"#utility.yul\":7035:7051   */\n      add\n        /* \"#utility.yul\":7084:7087   */\n      dup5\n        /* \"#utility.yul\":7075:7081   */\n      dup5\n        /* \"#utility.yul\":7070:7073   */\n      dup5\n        /* \"#utility.yul\":7066:7082   */\n      add\n        /* \"#utility.yul\":7063:7088   */\n      gt\n        /* \"#utility.yul\":7060:7172   */\n      iszero\n      tag_220\n      jumpi\n        /* \"#utility.yul\":7091:7170   */\n      tag_221\n      tag_127\n      jump\t// in\n    tag_221:\n        /* \"#utility.yul\":7060:7172   */\n    tag_220:\n        /* \"#utility.yul\":7181:7222   */\n      tag_222\n        /* \"#utility.yul\":7215:7221   */\n      dup5\n        /* \"#utility.yul\":7210:7213   */\n      dup3\n        /* \"#utility.yul\":7205:7208   */\n      dup6\n        /* \"#utility.yul\":7181:7222   */\n      tag_132\n      jump\t// in\n    tag_222:\n        /* \"#utility.yul\":6900:7228   */\n      pop\n        /* \"#utility.yul\":6816:7228   */\n      swap4\n      swap3\n      pop\n      pop\n      pop\n      jump\t// out\n        /* \"#utility.yul\":7248:7588   */\n    tag_134:\n        /* \"#utility.yul\":7304:7309   */\n      0x00\n        /* \"#utility.yul\":7353:7356   */\n      dup3\n        /* \"#utility.yul\":7346:7350   */\n      0x1f\n        /* \"#utility.yul\":7338:7344   */\n      dup4\n        /* \"#utility.yul\":7334:7351   */\n      add\n        /* \"#utility.yul\":7330:7357   */\n      slt\n        /* \"#utility.yul\":7320:7442   */\n      tag_224\n      jumpi\n        /* \"#utility.yul\":7361:7440   */\n      tag_225\n      tag_126\n      jump\t// in\n    tag_225:\n        /* \"#utility.yul\":7320:7442   */\n    tag_224:\n        /* \"#utility.yul\":7478:7484   */\n      dup2\n        /* \"#utility.yul\":7465:7485   */\n      calldataload\n        /* \"#utility.yul\":7503:7582   */\n      tag_226\n        /* \"#utility.yul\":7578:7581   */\n      dup5\n        /* \"#utility.yul\":7570:7576   */\n      dup3\n        /* \"#utility.yul\":7563:7567   */\n      0x20\n        /* \"#utility.yul\":7555:7561   */\n      dup7\n        /* \"#utility.yul\":7551:7568   */\n      add\n        /* \"#utility.yul\":7503:7582   */\n      tag_133\n      jump\t// in\n    tag_226:\n        /* \"#utility.yul\":7494:7582   */\n      swap2\n      pop\n        /* \"#utility.yul\":7310:7588   */\n      pop\n        /* \"#utility.yul\":7248:7588   */\n      swap3\n      swap2\n      pop\n      pop\n      jump\t// out\n        /* \"#utility.yul\":7594:8393   */\n    tag_46:\n        /* \"#utility.yul\":7681:7687   */\n      0x00\n        /* \"#utility.yul\":7689:7695   */\n      dup1\n        /* \"#utility.yul\":7697:7703   */\n      0x00\n        /* \"#utility.yul\":7746:7748   */\n      0x60\n        /* \"#utility.yul\":7734:7743   */\n      dup5\n        /* \"#utility.yul\":7725:7732   */\n      dup7\n        /* \"#utility.yul\":7721:7744   */\n      sub\n        /* \"#utility.yul\":7717:7749   */\n      slt\n        /* \"#utility.yul\":7714:7833   */\n      iszero\n      tag_228\n      jumpi\n        /* \"#utility.yul\":7752:7831   */\n      tag_229\n      tag_108\n      jump\t// in\n    tag_229:\n        /* \"#utility.yul\":7714:7833   */\n    tag_228:\n        /* \"#utility.yul\":7900:7901   */\n      0x00\n        /* \"#utility.yul\":7889:7898   */\n      dup5\n        /* \"#utility.yul\":7885:7902   */\n      add\n        /* \"#utility.yul\":7872:7903   */\n      calldataload\n        /* \"#utility.yul\":7930:7948   */\n      0xffffffffffffffff\n        /* \"#utility.yul\":7922:7928   */\n      dup2\n        /* \"#utility.yul\":7919:7949   */\n      gt\n        /* \"#utility.yul\":7916:8033   */\n      iszero\n      tag_230\n      jumpi\n        /* \"#utility.yul\":7952:8031   */\n      tag_231\n      tag_109\n      jump\t// in\n    tag_231:\n        /* \"#utility.yul\":7916:8033   */\n    tag_230:\n        /* \"#utility.yul\":8057:8120   */\n      tag_232\n        /* \"#utility.yul\":8112:8119   */\n      dup7\n        /* \"#utility.yul\":8103:8109   */\n      dup3\n        /* \"#utility.yul\":8092:8101   */\n      dup8\n        /* \"#utility.yul\":8088:8110   */\n      add\n        /* \"#utility.yul\":8057:8120   */\n      tag_134\n      jump\t// in\n    tag_232:\n        /* \"#utility.yul\":8047:8120   */\n      swap4\n      pop\n        /* \"#utility.yul\":7843:8130   */\n      pop\n        /* \"#utility.yul\":8169:8171   */\n      0x20\n        /* \"#utility.yul\":8195:8248   */\n      tag_233\n        /* \"#utility.yul\":8240:8247   */\n      dup7\n        /* \"#utility.yul\":8231:8237   */\n      dup3\n        /* \"#utility.yul\":8220:8229   */\n      dup8\n        /* \"#utility.yul\":8216:8238   */\n      add\n        /* \"#utility.yul\":8195:8248   */\n      tag_120\n      jump\t// in\n    tag_233:\n        /* \"#utility.yul\":8185:8248   */\n      swap3\n      pop\n        /* \"#utility.yul\":8140:8258   */\n      pop\n        /* \"#utility.yul\":8297:8299   */\n      0x40\n        /* \"#utility.yul\":8323:8376   */\n      tag_234\n        /* \"#utility.yul\":8368:8375   */\n      dup7\n        /* \"#utility.yul\":8359:8365   */\n      dup3\n        /* \"#utility.yul\":8348:8357   */\n      dup8\n        /* \"#utility.yul\":8344:8366   */\n      add\n        /* \"#utility.yul\":8323:8376   */\n      tag_113\n      jump\t// in\n    tag_234:\n        /* \"#utility.yul\":8313:8376   */\n      swap2\n      pop\n        /* \"#utility.yul\":8268:8386   */\n      pop\n        /* \"#utility.yul\":7594:8393   */\n      swap3\n      pop\n      swap3\n      pop\n      swap3\n      jump\t// out\n        /* \"#utility.yul\":8399:8579   */\n    tag_135:\n        /* \"#utility.yul\":8447:8524   */\n      0x4e487b7100000000000000000000000000000000000000000000000000000000\n        /* \"#utility.yul\":8444:8445   */\n      0x00\n        /* \"#utility.yul\":8437:8525   */\n      mstore\n        /* \"#utility.yul\":8544:8548   */\n      0x22\n        /* \"#utility.yul\":8541:8542   */\n      0x04\n        /* \"#utility.yul\":8534:8549   */\n      mstore\n        /* \"#utility.yul\":8568:8572   */\n      0x24\n        /* \"#utility.yul\":8565:8566   */\n      0x00\n        /* \"#utility.yul\":8558:8573   */\n      revert\n        /* \"#utility.yul\":8585:8905   */\n    tag_68:\n        /* \"#utility.yul\":8629:8635   */\n      0x00\n        /* \"#utility.yul\":8666:8667   */\n      0x02\n        /* \"#utility.yul\":8660:8664   */\n      dup3\n        /* \"#utility.yul\":8656:8668   */\n      div\n        /* \"#utility.yul\":8646:8668   */\n      swap1\n      pop\n        /* \"#utility.yul\":8713:8714   */\n      0x01\n        /* \"#utility.yul\":8707:8711   */\n      dup3\n        /* \"#utility.yul\":8703:8715   */\n      and\n        /* \"#utility.yul\":8734:8752   */\n      dup1\n        /* \"#utility.yul\":8724:8805   */\n      tag_237\n      jumpi\n        /* \"#utility.yul\":8790:8794   */\n      0x7f\n        /* \"#utility.yul\":8782:8788   */\n      dup3\n        /* \"#utility.yul\":8778:8795   */\n      and\n        /* \"#utility.yul\":8768:8795   */\n      swap2\n      pop\n        /* \"#utility.yul\":8724:8805   */\n    tag_237:\n        /* \"#utility.yul\":8852:8854   */\n      0x20\n        /* \"#utility.yul\":8844:8850   */\n      dup3\n        /* \"#utility.yul\":8841:8855   */\n      lt\n        /* \"#utility.yul\":8821:8839   */\n      dup2\n        /* \"#utility.yul\":8818:8856   */\n      sub\n        /* \"#utility.yul\":8815:8899   */\n      tag_238\n      jumpi\n        /* \"#utility.yul\":8871:8889   */\n      tag_239\n      tag_135\n      jump\t// in\n    tag_239:\n        /* \"#utility.yul\":8815:8899   */\n    tag_238:\n        /* \"#utility.yul\":8636:8905   */\n      pop\n        /* \"#utility.yul\":8585:8905   */\n      swap2\n      swap1\n      pop\n      jump\t// out\n        /* \"#utility.yul\":8911:9091   */\n    tag_136:\n        /* \"#utility.yul\":8959:9036   */\n      0x4e487b7100000000000000000000000000000000000000000000000000000000\n        /* \"#utility.yul\":8956:8957   */\n      0x00\n        /* \"#utility.yul\":8949:9037   */\n      mstore\n        /* \"#utility.yul\":9056:9060   */\n      0x11\n        /* \"#utility.yul\":9053:9054   */\n      0x04\n        /* \"#utility.yul\":9046:9061   */\n      mstore\n        /* \"#utility.yul\":9080:9084   */\n      0x24\n        /* \"#utility.yul\":9077:9078   */\n      0x00\n        /* \"#utility.yul\":9070:9085   */\n      revert\n        /* \"#utility.yul\":9097:9330   */\n    tag_77:\n        /* \"#utility.yul\":9136:9139   */\n      0x00\n        /* \"#utility.yul\":9159:9183   */\n      tag_242\n        /* \"#utility.yul\":9177:9182   */\n      dup3\n        /* \"#utility.yul\":9159:9183   */\n      tag_117\n      jump\t// in\n    tag_242:\n        /* \"#utility.yul\":9150:9183   */\n      swap2\n      pop\n        /* \"#utility.yul\":9205:9271   */\n      0xffffffffffffffffffffffffffffffffffffffffffffffffffffffffffffffff\n        /* \"#utility.yul\":9198:9203   */\n      dup3\n        /* \"#utility.yul\":9195:9272   */\n      sub\n        /* \"#utility.yul\":9192:9295   */\n      tag_243\n      jumpi\n        /* \"#utility.yul\":9275:9293   */\n      tag_244\n      tag_136\n      jump\t// in\n    tag_244:\n        /* \"#utility.yul\":9192:9295   */\n    tag_243:\n        /* \"#utility.yul\":9322:9323   */\n      0x01\n        /* \"#utility.yul\":9315:9320   */\n      dup3\n        /* \"#utility.yul\":9311:9324   */\n      add\n        /* \"#utility.yul\":9304:9324   */\n      swap1\n      pop\n        /* \"#utility.yul\":9097:9330   */\n      swap2\n      swap1\n      pop\n      jump\t// out\n        /* \"#utility.yul\":9336:9516   */\n    tag_137:\n        /* \"#utility.yul\":9384:9461   */\n      0x4e487b7100000000000000000000000000000000000000000000000000000000\n        /* \"#utility.yul\":9381:9382   */\n      0x00\n        /* \"#utility.yul\":9374:9462   */\n      mstore\n        /* \"#utility.yul\":9481:9485   */\n      0x12\n        /* \"#utility.yul\":9478:9479   */\n      0x04\n        /* \"#utility.yul\":9471:9486   */\n      mstore\n        /* \"#utility.yul\":9505:9509   */\n      0x24\n        /* \"#utility.yul\":9502:9503   */\n      0x00\n        /* \"#utility.yul\":9495:9510   */\n      revert\n        /* \"#utility.yul\":9522:9707   */\n    tag_84:\n        /* \"#utility.yul\":9562:9563   */\n      0x00\n        /* \"#utility.yul\":9579:9599   */\n      tag_247\n        /* \"#utility.yul\":9597:9598   */\n      dup3\n        /* \"#utility.yul\":9579:9599   */\n      tag_117\n      jump\t// in\n    tag_247:\n        /* \"#utility.yul\":9574:9599   */\n      swap2\n      pop\n        /* \"#utility.yul\":9613:9633   */\n      tag_248\n        /* \"#utility.yul\":9631:9632   */\n      dup4\n        /* \"#utility.yul\":9613:9633   */\n      tag_117\n      jump\t// in\n    tag_248:\n        /* \"#utility.yul\":9608:9633   */\n      swap3\n      pop\n        /* \"#utility.yul\":9652:9653   */\n      dup3\n        /* \"#utility.yul\":9642:9677   */\n      tag_249\n      jumpi\n        /* \"#utility.yul\":9657:9675   */\n      tag_250\n      tag_137\n      jump\t// in\n    tag_250:\n        /* \"#utility.yul\":9642:9677   */\n    tag_249:\n        /* \"#utility.yul\":9699:9700   */\n      dup3\n        /* \"#utility.yul\":9696:9697   */\n      dup3\n        /* \"#utility.yul\":9692:9701   */\n      div\n        /* \"#utility.yul\":9687:9701   */\n      swap1\n      pop\n        /* \"#utility.yul\":9522:9707   */\n      swap3\n      swap2\n      pop\n      pop\n      jump\t// out\n\n    auxdata: 0xa26469706673582212207d50f9ec1a7ffbf594d5ee7788246a420a57c2d74860e539b51451a92806a29264736f6c634300080d0033\n}\n","bytecode":{"linkReferences":{},"object":"60806040523480156200001157600080fd5b506040516200106d3803806200106d83398181016040528101906200003791906200012b565b81600181905550806000806101000a81548173ffffffffffffffffffffffffffffffffffffffff021916908373ffffffffffffffffffffffffffffffffffffffff160217905550505062000172565b600080fd5b6000819050919050565b620000a0816200008b565b8114620000ac57600080fd5b50565b600081519050620000c08162000095565b92915050565b600073ffffffffffffffffffffffffffffffffffffffff82169050919050565b6000620000f382620000c6565b9050919050565b6200010581620000e6565b81146200011157600080fd5b50565b6000815190506200012581620000fa565b92915050565b6000806040838503121562000145576200014462000086565b5b60006200015585828601620000af565b9250506020620001688582860162000114565b9150509250929050565b610eeb80620001826000396000f3fe60806040526004361061009c5760003560e01c80638a9cfd55116100645780638a9cfd55146101a4578063937e09b1146101cd578063cc58b5ef146101f8578063d7bb99ba14610221578063d7d1bbdb1461022b578063fbfa4b7f146102545761009c565b80630a144391146100a1578063481c6a75146100de5780635b2a4cff1461010957806381d12c581461013857806382fde09314610179575b600080fd5b3480156100ad57600080fd5b506100c860048036038101906100c3919061097a565b61027f565b6040516100d591906109c2565b60405180910390f35b3480156100ea57600080fd5b506100f361029f565b60405161010091906109ec565b60405180910390f35b34801561011557600080fd5b5061011e6102c3565b60405161012f959493929190610a20565b60405180910390f35b34801561014457600080fd5b5061015f600480360381019061015a9190610a9f565b610308565b604051610170959493929190610b65565b60405180910390f35b34801561018557600080fd5b5061018e6103f3565b60405161019b9190610bbf565b60405180910390f35b3480156101b057600080fd5b506101cb60048036038101906101c69190610d0f565b6103f9565b005b3480156101d957600080fd5b506101e2610510565b6040516101ef9190610bbf565b60405180910390f35b34801561020457600080fd5b5061021f600480360381019061021a9190610a9f565b610516565b005b61022961064f565b005b34801561023757600080fd5b50610252600480360381019061024d9190610a9f565b610721565b005b34801561026057600080fd5b5061026961085f565b6040516102769190610bbf565b60405180910390f35b60026020528060005260406000206000915054906101000a900460ff1681565b60008054906101000a900473ffffffffffffffffffffffffffffffffffffffff1681565b60008060008060008060009054906101000a900473ffffffffffffffffffffffffffffffffffffffff1660015460045460055447945094509450945094509091929394565b600360205280600052604060002060009150905080600001805461032b90610dad565b80601f016020809104026020016040519081016040528092919081815260200182805461035790610dad565b80156103a45780601f10610379576101008083540402835291602001916103a4565b820191906000526020600020905b81548152906001019060200180831161038757829003601f168201915b5050505050908060010154908060020160009054906101000a900473ffffffffffffffffffffffffffffffffffffffff16908060020160149054906101000a900460ff16908060030154905085565b60055481565b60008054906101000a900473ffffffffffffffffffffffffffffffffffffffff1673ffffffffffffffffffffffffffffffffffffffff163373ffffffffffffffffffffffffffffffffffffffff161461045157600080fd5b6000600360006004600081548092919061046a90610e0d565b919050558152602001908152602001600020905083816000019080519060200190610496929190610865565b50828160010181905550818160020160006101000a81548173ffffffffffffffffffffffffffffffffffffffff021916908373ffffffffffffffffffffffffffffffffffffffff16021790555060008160020160146101000a81548160ff0219169083151502179055506000816003018190555050505050565b60015481565b60008054906101000a900473ffffffffffffffffffffffffffffffffffffffff1673ffffffffffffffffffffffffffffffffffffffff163373ffffffffffffffffffffffffffffffffffffffff161461056e57600080fd5b600060036000838152602001908152602001600020905060026005546105949190610e84565b8160030154116105a357600080fd5b8060020160149054906101000a900460ff16156105bf57600080fd5b8060020160009054906101000a900473ffffffffffffffffffffffffffffffffffffffff1673ffffffffffffffffffffffffffffffffffffffff166108fc82600101549081150290604051600060405180830381858888f1935050505015801561062d573d6000803e3d6000fd5b5060018160020160146101000a81548160ff0219169083151502179055505050565b600154341161065d57600080fd5b600260003373ffffffffffffffffffffffffffffffffffffffff1673ffffffffffffffffffffffffffffffffffffffff16815260200190815260200160002060009054906101000a900460ff1661071f576001600260003373ffffffffffffffffffffffffffffffffffffffff1673ffffffffffffffffffffffffffffffffffffffff16815260200190815260200160002060006101000a81548160ff0219169083151502179055506005600081548092919061071990610e0d565b91905055505b565b6000600360008381526020019081526020016000209050600260003373ffffffffffffffffffffffffffffffffffffffff1673ffffffffffffffffffffffffffffffffffffffff16815260200190815260200160002060009054906101000a900460ff1661078e57600080fd5b8060040160003373ffffffffffffffffffffffffffffffffffffffff1673ffffffffffffffffffffffffffffffffffffffff16815260200190815260200160002060009054906101000a900460ff16156107e757600080fd5b60018160040160003373ffffffffffffffffffffffffffffffffffffffff1673ffffffffffffffffffffffffffffffffffffffff16815260200190815260200160002060006101000a81548160ff02191690831515021790555080600301600081548092919061085690610e0d565b91905055505050565b60045481565b82805461087190610dad565b90600052602060002090601f01602090048101928261089357600085556108da565b82601f106108ac57805160ff19168380011785556108da565b828001600101855582156108da579182015b828111156108d95782518255916020019190600101906108be565b5b5090506108e791906108eb565b5090565b5b808211156109045760008160009055506001016108ec565b5090565b6000604051905090565b600080fd5b600080fd5b600073ffffffffffffffffffffffffffffffffffffffff82169050919050565b60006109478261091c565b9050919050565b6109578161093c565b811461096257600080fd5b50565b6000813590506109748161094e565b92915050565b6000602082840312156109905761098f610912565b5b600061099e84828501610965565b91505092915050565b60008115159050919050565b6109bc816109a7565b82525050565b60006020820190506109d760008301846109b3565b92915050565b6109e68161093c565b82525050565b6000602082019050610a0160008301846109dd565b92915050565b6000819050919050565b610a1a81610a07565b82525050565b600060a082019050610a3560008301886109dd565b610a426020830187610a11565b610a4f6040830186610a11565b610a5c6060830185610a11565b610a696080830184610a11565b9695505050505050565b610a7c81610a07565b8114610a8757600080fd5b50565b600081359050610a9981610a73565b92915050565b600060208284031215610ab557610ab4610912565b5b6000610ac384828501610a8a565b91505092915050565b600081519050919050565b600082825260208201905092915050565b60005b83811015610b06578082015181840152602081019050610aeb565b83811115610b15576000848401525b50505050565b6000601f19601f8301169050919050565b6000610b3782610acc565b610b418185610ad7565b9350610b51818560208601610ae8565b610b5a81610b1b565b840191505092915050565b600060a0820190508181036000830152610b7f8188610b2c565b9050610b8e6020830187610a11565b610b9b60408301866109dd565b610ba860608301856109b3565b610bb56080830184610a11565b9695505050505050565b6000602082019050610bd46000830184610a11565b92915050565b600080fd5b600080fd5b7f4e487b7100000000000000000000000000000000000000000000000000000000600052604160045260246000fd5b610c1c82610b1b565b810181811067ffffffffffffffff82111715610c3b57610c3a610be4565b5b80604052505050565b6000610c4e610908565b9050610c5a8282610c13565b919050565b600067ffffffffffffffff821115610c7a57610c79610be4565b5b610c8382610b1b565b9050602081019050919050565b82818337600083830152505050565b6000610cb2610cad84610c5f565b610c44565b905082815260208101848484011115610cce57610ccd610bdf565b5b610cd9848285610c90565b509392505050565b600082601f830112610cf657610cf5610bda565b5b8135610d06848260208601610c9f565b91505092915050565b600080600060608486031215610d2857610d27610912565b5b600084013567ffffffffffffffff811115610d4657610d45610917565b5b610d5286828701610ce1565b9350506020610d6386828701610a8a565b9250506040610d7486828701610965565b9150509250925092565b7f4e487b7100000000000000000000000000000000000000000000000000000000600052602260045260246000fd5b60006002820490506001821680610dc557607f821691505b602082108103610dd857610dd7610d7e565b5b50919050565b7f4e487b7100000000000000000000000000000000000000000000000000000000600052601160045260246000fd5b6000610e1882610a07565b91507fffffffffffffffffffffffffffffffffffffffffffffffffffffffffffffffff8203610e4a57610e49610dde565b5b600182019050919050565b7f4e487b7100000000000000000000000000000000000000000000000000000000600052601260045260246000fd5b6000610e8f82610a07565b9150610e9a83610a07565b925082610eaa57610ea9610e55565b5b82820490509291505056fea26469706673582212207d50f9ec1a7ffbf594d5ee7788246a420a57c2d74860e539b51451a92806a29264736f6c634300080d0033","opcodes":"PUSH1 0x80 PUSH1 0x40 MSTORE CALLVALUE DUP1 ISZERO PUSH3 0x11 JUMPI PUSH1 0x0 DUP1 REVERT JUMPDEST POP PUSH1 0x40 MLOAD PUSH3 0x106D CODESIZE SUB DUP1 PUSH3 0x106D DUP4 CODECOPY DUP2 DUP2 ADD PUSH1 0x40 MSTORE DUP2 ADD SWAP1 PUSH3 0x37 SWAP2 SWAP1 PUSH3 0x12B JUMP JUMPDEST DUP2 PUSH1 0x1 DUP2 SWAP1 SSTORE POP DUP1 PUSH1 0x0 DUP1 PUSH2 0x100 EXP DUP2 SLOAD DUP2 PUSH20 0xFFFFFFFFFFFFFFFFFFFFFFFFFFFFFFFFFFFFFFFF MUL NOT AND SWAP1 DUP4 PUSH20 0xFFFFFFFFFFFFFFFFFFFFFFFFFFFFFFFFFFFFFFFF AND MUL OR SWAP1 SSTORE POP POP POP PUSH3 0x172 JUMP JUMPDEST PUSH1 0x0 DUP1 REVERT JUMPDEST PUSH1 0x0 DUP2 SWAP1 POP SWAP2 SWAP1 POP JUMP JUMPDEST PUSH3 0xA0 DUP2 PUSH3 0x8B JUMP JUMPDEST DUP2 EQ PUSH3 0xAC JUMPI PUSH1 0x0 DUP1 REVERT JUMPDEST POP JUMP JUMPDEST PUSH1 0x0 DUP2 MLOAD SWAP1 POP PUSH3 0xC0 DUP2 PUSH3 0x95 JUMP JUMPDEST SWAP3 SWAP2 POP POP JUMP JUMPDEST PUSH1 0x0 PUSH20 0xFFFFFFFFFFFFFFFFFFFFFFFFFFFFFFFFFFFFFFFF DUP3 AND SWAP1 POP SWAP2 SWAP1 POP JUMP JUMPDEST PUSH1 0x0 PUSH3 0xF3 DUP3 PUSH3 0xC6 JUMP JUMPDEST SWAP1 POP SWAP2 SWAP1 POP JUMP JUMPDEST PUSH3 0x105 DUP2 PUSH3 0xE6 JUMP JUMPDEST DUP2 EQ PUSH3 0x111 JUMPI PUSH1 0x0 DUP1 REVERT JUMPDEST POP JUMP JUMPDEST PUSH1 0x0 DUP2 MLOAD SWAP1 POP PUSH3 0x125 DUP2 PUSH3 0xFA JUMP JUMPDEST SWAP3 SWAP2 POP POP JUMP JUMPDEST PUSH1 0x0 DUP1 PUSH1 0x40 DUP4 DUP6 SUB SLT ISZERO PUSH3 0x145 JUMPI PUSH3 0x144 PUSH3 0x86 JUMP JUMPDEST JUMPDEST PUSH1 0x0 PUSH3 0x155 DUP6 DUP3 DUP7 ADD PUSH3 0xAF JUMP JUMPDEST SWAP3 POP POP PUSH1 0x20 PUSH3 0x168 DUP6 DUP3 DUP7 ADD PUSH3 0x114 JUMP JUMPDEST SWAP2 POP POP SWAP3 POP SWAP3 SWAP1 POP JUMP JUMPDEST PUSH2 0xEEB DUP1 PUSH3 0x182 PUSH1 0x0 CODECOPY PUSH1 0x0 RETURN INVALID PUSH1 0x80 PUSH1 0x40 MSTORE PUSH1 0x4 CALLDATASIZE LT PUSH2 0x9C JUMPI PUSH1 0x0 CALLDATALOAD PUSH1 0xE0 SHR DUP1 PUSH4 0x8A9CFD55 GT PUSH2 0x64 JUMPI DUP1 PUSH4 0x8A9CFD55 EQ PUSH2 0x1A4 JUMPI DUP1 PUSH4 0x937E09B1 EQ PUSH2 0x1CD JUMPI DUP1 PUSH4 0xCC58B5EF EQ PUSH2 0x1F8 JUMPI DUP1 PUSH4 0xD7BB99BA EQ PUSH2 0x221 JUMPI DUP1 PUSH4 0xD7D1BBDB EQ PUSH2 0x22B JUMPI DUP1 PUSH4 0xFBFA4B7F EQ PUSH2 0x254 JUMPI PUSH2 0x9C JUMP JUMPDEST DUP1 PUSH4 0xA144391 EQ PUSH2 0xA1 JUMPI DUP1 PUSH4 0x481C6A75 EQ PUSH2 0xDE JUMPI DUP1 PUSH4 0x5B2A4CFF EQ PUSH2 0x109 JUMPI DUP1 PUSH4 0x81D12C58 EQ PUSH2 0x138 JUMPI DUP1 PUSH4 0x82FDE093 EQ PUSH2 0x179 JUMPI JUMPDEST PUSH1 0x0 DUP1 REVERT JUMPDEST CALLVALUE DUP1 ISZERO PUSH2 0xAD JUMPI PUSH1 0x0 DUP1 REVERT JUMPDEST POP PUSH2 0xC8 PUSH1 0x4 DUP1 CALLDATASIZE SUB DUP2 ADD SWAP1 PUSH2 0xC3 SWAP2 SWAP1 PUSH2 0x97A JUMP JUMPDEST PUSH2 0x27F JUMP JUMPDEST PUSH1 0x40 MLOAD PUSH2 0xD5 SWAP2 SWAP1 PUSH2 0x9C2 JUMP JUMPDEST PUSH1 0x40 MLOAD DUP1 SWAP2 SUB SWAP1 RETURN JUMPDEST CALLVALUE DUP1 ISZERO PUSH2 0xEA JUMPI PUSH1 0x0 DUP1 REVERT JUMPDEST POP PUSH2 0xF3 PUSH2 0x29F JUMP JUMPDEST PUSH1 0x40 MLOAD PUSH2 0x100 SWAP2 SWAP1 PUSH2 0x9EC JUMP JUMPDEST PUSH1 0x40 MLOAD DUP1 SWAP2 SUB SWAP1 RETURN JUMPDEST CALLVALUE DUP1 ISZERO PUSH2 0x115 JUMPI PUSH1 0x0 DUP1 REVERT JUMPDEST POP PUSH2 0x11E PUSH2 0x2C3 JUMP JUMPDEST PUSH1 0x40 MLOAD PUSH2 0x12F SWAP6 SWAP5 SWAP4 SWAP3 SWAP2 SWAP1 PUSH2 0xA20 JUMP JUMPDEST PUSH1 0x40 MLOAD DUP1 SWAP2 SUB SWAP1 RETURN JUMPDEST CALLVALUE DUP1 ISZERO PUSH2 0x144 JUMPI PUSH1 0x0 DUP1 REVERT JUMPDEST POP PUSH2 0x15F PUSH1 0x4 DUP1 CALLDATASIZE SUB DUP2 ADD SWAP1 PUSH2 0x15A SWAP2 SWAP1 PUSH2 0xA9F JUMP JUMPDEST PUSH2 0x308 JUMP JUMPDEST PUSH1 0x40 MLOAD PUSH2 0x170 SWAP6 SWAP5 SWAP4 SWAP3 SWAP2 SWAP1 PUSH2 0xB65 JUMP JUMPDEST PUSH1 0x40 MLOAD DUP1 SWAP2 SUB SWAP1 RETURN JUMPDEST CALLVALUE DUP1 ISZERO PUSH2 0x185 JUMPI PUSH1 0x0 DUP1 REVERT JUMPDEST POP PUSH2 0x18E PUSH2 0x3F3 JUMP JUMPDEST PUSH1 0x40 MLOAD PUSH2 0x19B SWAP2 SWAP1 PUSH2 0xBBF JUMP JUMPDEST PUSH1 0x40 MLOAD DUP1 SWAP2 SUB SWAP1 RETURN JUMPDEST CALLVALUE DUP1 ISZERO PUSH2 0x1B0 JUMPI PUSH1 0x0 DUP1 REVERT JUMPDEST POP PUSH2 0x1CB PUSH1 0x4 DUP1 CALLDATASIZE SUB DUP2 ADD SWAP1 PUSH2 0x1C6 SWAP2 SWAP1 PUSH2 0xD0F JUMP JUMPDEST PUSH2 0x3F9 JUMP JUMPDEST STOP JUMPDEST CALLVALUE DUP1 ISZERO PUSH2 0x1D9 JUMPI PUSH1 0x0 DUP1 REVERT JUMPDEST POP PUSH2 0x1E2 PUSH2 0x510 JUMP JUMPDEST PUSH1 0x40 MLOAD PUSH2 0x1EF SWAP2 SWAP1 PUSH2 0xBBF JUMP JUMPDEST PUSH1 0x40 MLOAD DUP1 SWAP2 SUB SWAP1 RETURN JUMPDEST CALLVALUE DUP1 ISZERO PUSH2 0x204 JUMPI PUSH1 0x0 DUP1 REVERT JUMPDEST POP PUSH2 0x21F PUSH1 0x4 DUP1 CALLDATASIZE SUB DUP2 ADD SWAP1 PUSH2 0x21A SWAP2 SWAP1 PUSH2 0xA9F JUMP JUMPDEST PUSH2 0x516 JUMP JUMPDEST STOP JUMPDEST PUSH2 0x229 PUSH2 0x64F JUMP JUMPDEST STOP JUMPDEST CALLVALUE DUP1 ISZERO PUSH2 0x237 JUMPI PUSH1 0x0 DUP1 REVERT JUMPDEST POP PUSH2 0x252 PUSH1 0x4 DUP1 CALLDATASIZE SUB DUP2 ADD SWAP1 PUSH2 0x24D SWAP2 SWAP1 PUSH2 0xA9F JUMP JUMPDEST PUSH2 0x721 JUMP JUMPDEST STOP JUMPDEST CALLVALUE DUP1 ISZERO PUSH2 0x260 JUMPI PUSH1 0x0 DUP1 REVERT JUMPDEST POP PUSH2 0x269 PUSH2 0x85F JUMP JUMPDEST PUSH1 0x40 MLOAD PUSH2 0x276 SWAP2 SWAP1 PUSH2 0xBBF JUMP JUMPDEST PUSH1 0x40 MLOAD DUP1 SWAP2 SUB SWAP1 RETURN JUMPDEST PUSH1 0x2 PUSH1 0x20 MSTORE DUP1 PUSH1 0x0 MSTORE PUSH1 0x40 PUSH1 0x0 KECCAK256 PUSH1 0x0 SWAP2 POP SLOAD SWAP1 PUSH2 0x100 EXP SWAP1 DIV PUSH1 0xFF AND DUP2 JUMP JUMPDEST PUSH1 0x0 DUP1 SLOAD SWAP1 PUSH2 0x100 EXP SWAP1 DIV PUSH20 0xFFFFFFFFFFFFFFFFFFFFFFFFFFFFFFFFFFFFFFFF AND DUP2 JUMP JUMPDEST PUSH1 0x0 DUP1 PUSH1 0x0 DUP1 PUSH1 0x0 DUP1 PUSH1 0x0 SWAP1 SLOAD SWAP1 PUSH2 0x100 EXP SWAP1 DIV PUSH20 0xFFFFFFFFFFFFFFFFFFFFFFFFFFFFFFFFFFFFFFFF AND PUSH1 0x1 SLOAD PUSH1 0x4 SLOAD PUSH1 0x5 SLOAD SELFBALANCE SWAP5 POP SWAP5 POP SWAP5 POP SWAP5 POP SWAP5 POP SWAP1 SWAP2 SWAP3 SWAP4 SWAP5 JUMP JUMPDEST PUSH1 0x3 PUSH1 0x20 MSTORE DUP1 PUSH1 0x0 MSTORE PUSH1 0x40 PUSH1 0x0 KECCAK256 PUSH1 0x0 SWAP2 POP SWAP1 POP DUP1 PUSH1 0x0 ADD DUP1 SLOAD PUSH2 0x32B SWAP1 PUSH2 0xDAD JUMP JUMPDEST DUP1 PUSH1 0x1F ADD PUSH1 0x20 DUP1 SWAP2 DIV MUL PUSH1 0x20 ADD PUSH1 0x40 MLOAD SWAP1 DUP2 ADD PUSH1 0x40 MSTORE DUP1 SWAP3 SWAP2 SWAP1 DUP2 DUP2 MSTORE PUSH1 0x20 ADD DUP3 DUP1 SLOAD PUSH2 0x357 SWAP1 PUSH2 0xDAD JUMP JUMPDEST DUP1 ISZERO PUSH2 0x3A4 JUMPI DUP1 PUSH1 0x1F LT PUSH2 0x379 JUMPI PUSH2 0x100 DUP1 DUP4 SLOAD DIV MUL DUP4 MSTORE SWAP2 PUSH1 0x20 ADD SWAP2 PUSH2 0x3A4 JUMP JUMPDEST DUP3 ADD SWAP2 SWAP1 PUSH1 0x0 MSTORE PUSH1 0x20 PUSH1 0x0 KECCAK256 SWAP1 JUMPDEST DUP2 SLOAD DUP2 MSTORE SWAP1 PUSH1 0x1 ADD SWAP1 PUSH1 0x20 ADD DUP1 DUP4 GT PUSH2 0x387 JUMPI DUP3 SWAP1 SUB PUSH1 0x1F AND DUP3 ADD SWAP2 JUMPDEST POP POP POP POP POP SWAP1 DUP1 PUSH1 0x1 ADD SLOAD SWAP1 DUP1 PUSH1 0x2 ADD PUSH1 0x0 SWAP1 SLOAD SWAP1 PUSH2 0x100 EXP SWAP1 DIV PUSH20 0xFFFFFFFFFFFFFFFFFFFFFFFFFFFFFFFFFFFFFFFF AND SWAP1 DUP1 PUSH1 0x2 ADD PUSH1 0x14 SWAP1 SLOAD SWAP1 PUSH2 0x100 EXP SWAP1 DIV PUSH1 0xFF AND SWAP1 DUP1 PUSH1 0x3 ADD SLOAD SWAP1 POP DUP6 JUMP JUMPDEST PUSH1 0x5 SLOAD DUP2 JUMP JUMPDEST PUSH1 0x0 DUP1 SLOAD SWAP1 PUSH2 0x100 EXP SWAP1 DIV PUSH20 0xFFFFFFFFFFFFFFFFFFFFFFFFFFFFFFFFFFFFFFFF AND PUSH20 0xFFFFFFFFFFFFFFFFFFFFFFFFFFFFFFFFFFFFFFFF AND CALLER PUSH20 0xFFFFFFFFFFFFFFFFFFFFFFFFFFFFFFFFFFFFFFFF AND EQ PUSH2 0x451 JUMPI PUSH1 0x0 DUP1 REVERT JUMPDEST PUSH1 0x0 PUSH1 0x3 PUSH1 0x0 PUSH1 0x4 PUSH1 0x0 DUP2 SLOAD DUP1 SWAP3 SWAP2 SWAP1 PUSH2 0x46A SWAP1 PUSH2 0xE0D JUMP JUMPDEST SWAP2 SWAP1 POP SSTORE DUP2 MSTORE PUSH1 0x20 ADD SWAP1 DUP2 MSTORE PUSH1 0x20 ADD PUSH1 0x0 KECCAK256 SWAP1 POP DUP4 DUP2 PUSH1 0x0 ADD SWAP1 DUP1 MLOAD SWAP1 PUSH1 0x20 ADD SWAP1 PUSH2 0x496 SWAP3 SWAP2 SWAP1 PUSH2 0x865 JUMP JUMPDEST POP DUP3 DUP2 PUSH1 0x1 ADD DUP2 SWAP1 SSTORE POP DUP2 DUP2 PUSH1 0x2 ADD PUSH1 0x0 PUSH2 0x100 EXP DUP2 SLOAD DUP2 PUSH20 0xFFFFFFFFFFFFFFFFFFFFFFFFFFFFFFFFFFFFFFFF MUL NOT AND SWAP1 DUP4 PUSH20 0xFFFFFFFFFFFFFFFFFFFFFFFFFFFFFFFFFFFFFFFF AND MUL OR SWAP1 SSTORE POP PUSH1 0x0 DUP2 PUSH1 0x2 ADD PUSH1 0x14 PUSH2 0x100 EXP DUP2 SLOAD DUP2 PUSH1 0xFF MUL NOT AND SWAP1 DUP4 ISZERO ISZERO MUL OR SWAP1 SSTORE POP PUSH1 0x0 DUP2 PUSH1 0x3 ADD DUP2 SWAP1 SSTORE POP POP POP POP POP JUMP JUMPDEST PUSH1 0x1 SLOAD DUP2 JUMP JUMPDEST PUSH1 0x0 DUP1 SLOAD SWAP1 PUSH2 0x100 EXP SWAP1 DIV PUSH20 0xFFFFFFFFFFFFFFFFFFFFFFFFFFFFFFFFFFFFFFFF AND PUSH20 0xFFFFFFFFFFFFFFFFFFFFFFFFFFFFFFFFFFFFFFFF AND CALLER PUSH20 0xFFFFFFFFFFFFFFFFFFFFFFFFFFFFFFFFFFFFFFFF AND EQ PUSH2 0x56E JUMPI PUSH1 0x0 DUP1 REVERT JUMPDEST PUSH1 0x0 PUSH1 0x3 PUSH1 0x0 DUP4 DUP2 MSTORE PUSH1 0x20 ADD SWAP1 DUP2 MSTORE PUSH1 0x20 ADD PUSH1 0x0 KECCAK256 SWAP1 POP PUSH1 0x2 PUSH1 0x5 SLOAD PUSH2 0x594 SWAP2 SWAP1 PUSH2 0xE84 JUMP JUMPDEST DUP2 PUSH1 0x3 ADD SLOAD GT PUSH2 0x5A3 JUMPI PUSH1 0x0 DUP1 REVERT JUMPDEST DUP1 PUSH1 0x2 ADD PUSH1 0x14 SWAP1 SLOAD SWAP1 PUSH2 0x100 EXP SWAP1 DIV PUSH1 0xFF AND ISZERO PUSH2 0x5BF JUMPI PUSH1 0x0 DUP1 REVERT JUMPDEST DUP1 PUSH1 0x2 ADD PUSH1 0x0 SWAP1 SLOAD SWAP1 PUSH2 0x100 EXP SWAP1 DIV PUSH20 0xFFFFFFFFFFFFFFFFFFFFFFFFFFFFFFFFFFFFFFFF AND PUSH20 0xFFFFFFFFFFFFFFFFFFFFFFFFFFFFFFFFFFFFFFFF AND PUSH2 0x8FC DUP3 PUSH1 0x1 ADD SLOAD SWAP1 DUP2 ISZERO MUL SWAP1 PUSH1 0x40 MLOAD PUSH1 0x0 PUSH1 0x40 MLOAD DUP1 DUP4 SUB DUP2 DUP6 DUP9 DUP9 CALL SWAP4 POP POP POP POP ISZERO DUP1 ISZERO PUSH2 0x62D JUMPI RETURNDATASIZE PUSH1 0x0 DUP1 RETURNDATACOPY RETURNDATASIZE PUSH1 0x0 REVERT JUMPDEST POP PUSH1 0x1 DUP2 PUSH1 0x2 ADD PUSH1 0x14 PUSH2 0x100 EXP DUP2 SLOAD DUP2 PUSH1 0xFF MUL NOT AND SWAP1 DUP4 ISZERO ISZERO MUL OR SWAP1 SSTORE POP POP POP JUMP JUMPDEST PUSH1 0x1 SLOAD CALLVALUE GT PUSH2 0x65D JUMPI PUSH1 0x0 DUP1 REVERT JUMPDEST PUSH1 0x2 PUSH1 0x0 CALLER PUSH20 0xFFFFFFFFFFFFFFFFFFFFFFFFFFFFFFFFFFFFFFFF AND PUSH20 0xFFFFFFFFFFFFFFFFFFFFFFFFFFFFFFFFFFFFFFFF AND DUP2 MSTORE PUSH1 0x20 ADD SWAP1 DUP2 MSTORE PUSH1 0x20 ADD PUSH1 0x0 KECCAK256 PUSH1 0x0 SWAP1 SLOAD SWAP1 PUSH2 0x100 EXP SWAP1 DIV PUSH1 0xFF AND PUSH2 0x71F JUMPI PUSH1 0x1 PUSH1 0x2 PUSH1 0x0 CALLER PUSH20 0xFFFFFFFFFFFFFFFFFFFFFFFFFFFFFFFFFFFFFFFF AND PUSH20 0xFFFFFFFFFFFFFFFFFFFFFFFFFFFFFFFFFFFFFFFF AND DUP2 MSTORE PUSH1 0x20 ADD SWAP1 DUP2 MSTORE PUSH1 0x20 ADD PUSH1 0x0 KECCAK256 PUSH1 0x0 PUSH2 0x100 EXP DUP2 SLOAD DUP2 PUSH1 0xFF MUL NOT AND SWAP1 DUP4 ISZERO ISZERO MUL OR SWAP1 SSTORE POP PUSH1 0x5 PUSH1 0x0 DUP2 SLOAD DUP1 SWAP3 SWAP2 SWAP1 PUSH2 0x719 SWAP1 PUSH2 0xE0D JUMP JUMPDEST SWAP2 SWAP1 POP SSTORE POP JUMPDEST JUMP JUMPDEST PUSH1 0x0 PUSH1 0x3 PUSH1 0x0 DUP4 DUP2 MSTORE PUSH1 0x20 ADD SWAP1 DUP2 MSTORE PUSH1 0x20 ADD PUSH1 0x0 KECCAK256 SWAP1 POP PUSH1 0x2 PUSH1 0x0 CALLER PUSH20 0xFFFFFFFFFFFFFFFFFFFFFFFFFFFFFFFFFFFFFFFF AND PUSH20 0xFFFFFFFFFFFFFFFFFFFFFFFFFFFFFFFFFFFFFFFF AND DUP2 MSTORE PUSH1 0x20 ADD SWAP1 DUP2 MSTORE PUSH1 0x20 ADD PUSH1 0x0 KECCAK256 PUSH1 0x0 SWAP1 SLOAD SWAP1 PUSH2 0x100 EXP SWAP1 DIV PUSH1 0xFF AND PUSH2 0x78E JUMPI PUSH1 0x0 DUP1 REVERT JUMPDEST DUP1 PUSH1 0x4 ADD PUSH1 0x0 CALLER PUSH20 0xFFFFFFFFFFFFFFFFFFFFFFFFFFFFFFFFFFFFFFFF AND PUSH20 0xFFFFFFFFFFFFFFFFFFFFFFFFFFFFFFFFFFFFFFFF AND DUP2 MSTORE PUSH1 0x20 ADD SWAP1 DUP2 MSTORE PUSH1 0x20 ADD PUSH1 0x0 KECCAK256 PUSH1 0x0 SWAP1 SLOAD SWAP1 PUSH2 0x100 EXP SWAP1 DIV PUSH1 0xFF AND ISZERO PUSH2 0x7E7 JUMPI PUSH1 0x0 DUP1 REVERT JUMPDEST PUSH1 0x1 DUP2 PUSH1 0x4 ADD PUSH1 0x0 CALLER PUSH20 0xFFFFFFFFFFFFFFFFFFFFFFFFFFFFFFFFFFFFFFFF AND PUSH20 0xFFFFFFFFFFFFFFFFFFFFFFFFFFFFFFFFFFFFFFFF AND DUP2 MSTORE PUSH1 0x20 ADD SWAP1 DUP2 MSTORE PUSH1 0x20 ADD PUSH1 0x0 KECCAK256 PUSH1 0x0 PUSH2 0x100 EXP DUP2 SLOAD DUP2 PUSH1 0xFF MUL NOT AND SWAP1 DUP4 ISZERO ISZERO MUL OR SWAP1 SSTORE POP DUP1 PUSH1 0x3 ADD PUSH1 0x0 DUP2 SLOAD DUP1 SWAP3 SWAP2 SWAP1 PUSH2 0x856 SWAP1 PUSH2 0xE0D JUMP JUMPDEST SWAP2 SWAP1 POP SSTORE POP POP POP JUMP JUMPDEST PUSH1 0x4 SLOAD DUP2 JUMP JUMPDEST DUP3 DUP1 SLOAD PUSH2 0x871 SWAP1 PUSH2 0xDAD JUMP JUMPDEST SWAP1 PUSH1 0x0 MSTORE PUSH1 0x20 PUSH1 0x0 KECCAK256 SWAP1 PUSH1 0x1F ADD PUSH1 0x20 SWAP1 DIV DUP2 ADD SWAP3 DUP3 PUSH2 0x893 JUMPI PUSH1 0x0 DUP6 SSTORE PUSH2 0x8DA JUMP JUMPDEST DUP3 PUSH1 0x1F LT PUSH2 0x8AC JUMPI DUP1 MLOAD PUSH1 0xFF NOT AND DUP4 DUP1 ADD OR DUP6 SSTORE PUSH2 0x8DA JUMP JUMPDEST DUP3 DUP1 ADD PUSH1 0x1 ADD DUP6 SSTORE DUP3 ISZERO PUSH2 0x8DA JUMPI SWAP2 DUP3 ADD JUMPDEST DUP3 DUP2 GT ISZERO PUSH2 0x8D9 JUMPI DUP3 MLOAD DUP3 SSTORE SWAP2 PUSH1 0x20 ADD SWAP2 SWAP1 PUSH1 0x1 ADD SWAP1 PUSH2 0x8BE JUMP JUMPDEST JUMPDEST POP SWAP1 POP PUSH2 0x8E7 SWAP2 SWAP1 PUSH2 0x8EB JUMP JUMPDEST POP SWAP1 JUMP JUMPDEST JUMPDEST DUP1 DUP3 GT ISZERO PUSH2 0x904 JUMPI PUSH1 0x0 DUP2 PUSH1 0x0 SWAP1 SSTORE POP PUSH1 0x1 ADD PUSH2 0x8EC JUMP JUMPDEST POP SWAP1 JUMP JUMPDEST PUSH1 0x0 PUSH1 0x40 MLOAD SWAP1 POP SWAP1 JUMP JUMPDEST PUSH1 0x0 DUP1 REVERT JUMPDEST PUSH1 0x0 DUP1 REVERT JUMPDEST PUSH1 0x0 PUSH20 0xFFFFFFFFFFFFFFFFFFFFFFFFFFFFFFFFFFFFFFFF DUP3 AND SWAP1 POP SWAP2 SWAP1 POP JUMP JUMPDEST PUSH1 0x0 PUSH2 0x947 DUP3 PUSH2 0x91C JUMP JUMPDEST SWAP1 POP SWAP2 SWAP1 POP JUMP JUMPDEST PUSH2 0x957 DUP2 PUSH2 0x93C JUMP JUMPDEST DUP2 EQ PUSH2 0x962 JUMPI PUSH1 0x0 DUP1 REVERT JUMPDEST POP JUMP JUMPDEST PUSH1 0x0 DUP2 CALLDATALOAD SWAP1 POP PUSH2 0x974 DUP2 PUSH2 0x94E JUMP JUMPDEST SWAP3 SWAP2 POP POP JUMP JUMPDEST PUSH1 0x0 PUSH1 0x20 DUP3 DUP5 SUB SLT ISZERO PUSH2 0x990 JUMPI PUSH2 0x98F PUSH2 0x912 JUMP JUMPDEST JUMPDEST PUSH1 0x0 PUSH2 0x99E DUP5 DUP3 DUP6 ADD PUSH2 0x965 JUMP JUMPDEST SWAP2 POP POP SWAP3 SWAP2 POP POP JUMP JUMPDEST PUSH1 0x0 DUP2 ISZERO ISZERO SWAP1 POP SWAP2 SWAP1 POP JUMP JUMPDEST PUSH2 0x9BC DUP2 PUSH2 0x9A7 JUMP JUMPDEST DUP3 MSTORE POP POP JUMP JUMPDEST PUSH1 0x0 PUSH1 0x20 DUP3 ADD SWAP1 POP PUSH2 0x9D7 PUSH1 0x0 DUP4 ADD DUP5 PUSH2 0x9B3 JUMP JUMPDEST SWAP3 SWAP2 POP POP JUMP JUMPDEST PUSH2 0x9E6 DUP2 PUSH2 0x93C JUMP JUMPDEST DUP3 MSTORE POP POP JUMP JUMPDEST PUSH1 0x0 PUSH1 0x20 DUP3 ADD SWAP1 POP PUSH2 0xA01 PUSH1 0x0 DUP4 ADD DUP5 PUSH2 0x9DD JUMP JUMPDEST SWAP3 SWAP2 POP POP JUMP JUMPDEST PUSH1 0x0 DUP2 SWAP1 POP SWAP2 SWAP1 POP JUMP JUMPDEST PUSH2 0xA1A DUP2 PUSH2 0xA07 JUMP JUMPDEST DUP3 MSTORE POP POP JUMP JUMPDEST PUSH1 0x0 PUSH1 0xA0 DUP3 ADD SWAP1 POP PUSH2 0xA35 PUSH1 0x0 DUP4 ADD DUP9 PUSH2 0x9DD JUMP JUMPDEST PUSH2 0xA42 PUSH1 0x20 DUP4 ADD DUP8 PUSH2 0xA11 JUMP JUMPDEST PUSH2 0xA4F PUSH1 0x40 DUP4 ADD DUP7 PUSH2 0xA11 JUMP JUMPDEST PUSH2 0xA5C PUSH1 0x60 DUP4 ADD DUP6 PUSH2 0xA11 JUMP JUMPDEST PUSH2 0xA69 PUSH1 0x80 DUP4 ADD DUP5 PUSH2 0xA11 JUMP JUMPDEST SWAP7 SWAP6 POP POP POP POP POP POP JUMP JUMPDEST PUSH2 0xA7C DUP2 PUSH2 0xA07 JUMP JUMPDEST DUP2 EQ PUSH2 0xA87 JUMPI PUSH1 0x0 DUP1 REVERT JUMPDEST POP JUMP JUMPDEST PUSH1 0x0 DUP2 CALLDATALOAD SWAP1 POP PUSH2 0xA99 DUP2 PUSH2 0xA73 JUMP JUMPDEST SWAP3 SWAP2 POP POP JUMP JUMPDEST PUSH1 0x0 PUSH1 0x20 DUP3 DUP5 SUB SLT ISZERO PUSH2 0xAB5 JUMPI PUSH2 0xAB4 PUSH2 0x912 JUMP JUMPDEST JUMPDEST PUSH1 0x0 PUSH2 0xAC3 DUP5 DUP3 DUP6 ADD PUSH2 0xA8A JUMP JUMPDEST SWAP2 POP POP SWAP3 SWAP2 POP POP JUMP JUMPDEST PUSH1 0x0 DUP2 MLOAD SWAP1 POP SWAP2 SWAP1 POP JUMP JUMPDEST PUSH1 0x0 DUP3 DUP3 MSTORE PUSH1 0x20 DUP3 ADD SWAP1 POP SWAP3 SWAP2 POP POP JUMP JUMPDEST PUSH1 0x0 JUMPDEST DUP4 DUP2 LT ISZERO PUSH2 0xB06 JUMPI DUP1 DUP3 ADD MLOAD DUP2 DUP5 ADD MSTORE PUSH1 0x20 DUP2 ADD SWAP1 POP PUSH2 0xAEB JUMP JUMPDEST DUP4 DUP2 GT ISZERO PUSH2 0xB15 JUMPI PUSH1 0x0 DUP5 DUP5 ADD MSTORE JUMPDEST POP POP POP POP JUMP JUMPDEST PUSH1 0x0 PUSH1 0x1F NOT PUSH1 0x1F DUP4 ADD AND SWAP1 POP SWAP2 SWAP1 POP JUMP JUMPDEST PUSH1 0x0 PUSH2 0xB37 DUP3 PUSH2 0xACC JUMP JUMPDEST PUSH2 0xB41 DUP2 DUP6 PUSH2 0xAD7 JUMP JUMPDEST SWAP4 POP PUSH2 0xB51 DUP2 DUP6 PUSH1 0x20 DUP7 ADD PUSH2 0xAE8 JUMP JUMPDEST PUSH2 0xB5A DUP2 PUSH2 0xB1B JUMP JUMPDEST DUP5 ADD SWAP2 POP POP SWAP3 SWAP2 POP POP JUMP JUMPDEST PUSH1 0x0 PUSH1 0xA0 DUP3 ADD SWAP1 POP DUP2 DUP2 SUB PUSH1 0x0 DUP4 ADD MSTORE PUSH2 0xB7F DUP2 DUP9 PUSH2 0xB2C JUMP JUMPDEST SWAP1 POP PUSH2 0xB8E PUSH1 0x20 DUP4 ADD DUP8 PUSH2 0xA11 JUMP JUMPDEST PUSH2 0xB9B PUSH1 0x40 DUP4 ADD DUP7 PUSH2 0x9DD JUMP JUMPDEST PUSH2 0xBA8 PUSH1 0x60 DUP4 ADD DUP6 PUSH2 0x9B3 JUMP JUMPDEST PUSH2 0xBB5 PUSH1 0x80 DUP4 ADD DUP5 PUSH2 0xA11 JUMP JUMPDEST SWAP7 SWAP6 POP POP POP POP POP POP JUMP JUMPDEST PUSH1 0x0 PUSH1 0x20 DUP3 ADD SWAP1 POP PUSH2 0xBD4 PUSH1 0x0 DUP4 ADD DUP5 PUSH2 0xA11 JUMP JUMPDEST SWAP3 SWAP2 POP POP JUMP JUMPDEST PUSH1 0x0 DUP1 REVERT JUMPDEST PUSH1 0x0 DUP1 REVERT JUMPDEST PUSH32 0x4E487B7100000000000000000000000000000000000000000000000000000000 PUSH1 0x0 MSTORE PUSH1 0x41 PUSH1 0x4 MSTORE PUSH1 0x24 PUSH1 0x0 REVERT JUMPDEST PUSH2 0xC1C DUP3 PUSH2 0xB1B JUMP JUMPDEST DUP2 ADD DUP2 DUP2 LT PUSH8 0xFFFFFFFFFFFFFFFF DUP3 GT OR ISZERO PUSH2 0xC3B JUMPI PUSH2 0xC3A PUSH2 0xBE4 JUMP JUMPDEST JUMPDEST DUP1 PUSH1 0x40 MSTORE POP POP POP JUMP JUMPDEST PUSH1 0x0 PUSH2 0xC4E PUSH2 0x908 JUMP JUMPDEST SWAP1 POP PUSH2 0xC5A DUP3 DUP3 PUSH2 0xC13 JUMP JUMPDEST SWAP2 SWAP1 POP JUMP JUMPDEST PUSH1 0x0 PUSH8 0xFFFFFFFFFFFFFFFF DUP3 GT ISZERO PUSH2 0xC7A JUMPI PUSH2 0xC79 PUSH2 0xBE4 JUMP JUMPDEST JUMPDEST PUSH2 0xC83 DUP3 PUSH2 0xB1B JUMP JUMPDEST SWAP1 POP PUSH1 0x20 DUP2 ADD SWAP1 POP SWAP2 SWAP1 POP JUMP JUMPDEST DUP3 DUP2 DUP4 CALLDATACOPY PUSH1 0x0 DUP4 DUP4 ADD MSTORE POP POP POP JUMP JUMPDEST PUSH1 0x0 PUSH2 0xCB2 PUSH2 0xCAD DUP5 PUSH2 0xC5F JUMP JUMPDEST PUSH2 0xC44 JUMP JUMPDEST SWAP1 POP DUP3 DUP2 MSTORE PUSH1 0x20 DUP2 ADD DUP5 DUP5 DUP5 ADD GT ISZERO PUSH2 0xCCE JUMPI PUSH2 0xCCD PUSH2 0xBDF JUMP JUMPDEST JUMPDEST PUSH2 0xCD9 DUP5 DUP3 DUP6 PUSH2 0xC90 JUMP JUMPDEST POP SWAP4 SWAP3 POP POP POP JUMP JUMPDEST PUSH1 0x0 DUP3 PUSH1 0x1F DUP4 ADD SLT PUSH2 0xCF6 JUMPI PUSH2 0xCF5 PUSH2 0xBDA JUMP JUMPDEST JUMPDEST DUP2 CALLDATALOAD PUSH2 0xD06 DUP5 DUP3 PUSH1 0x20 DUP7 ADD PUSH2 0xC9F JUMP JUMPDEST SWAP2 POP POP SWAP3 SWAP2 POP POP JUMP JUMPDEST PUSH1 0x0 DUP1 PUSH1 0x0 PUSH1 0x60 DUP5 DUP7 SUB SLT ISZERO PUSH2 0xD28 JUMPI PUSH2 0xD27 PUSH2 0x912 JUMP JUMPDEST JUMPDEST PUSH1 0x0 DUP5 ADD CALLDATALOAD PUSH8 0xFFFFFFFFFFFFFFFF DUP2 GT ISZERO PUSH2 0xD46 JUMPI PUSH2 0xD45 PUSH2 0x917 JUMP JUMPDEST JUMPDEST PUSH2 0xD52 DUP7 DUP3 DUP8 ADD PUSH2 0xCE1 JUMP JUMPDEST SWAP4 POP POP PUSH1 0x20 PUSH2 0xD63 DUP7 DUP3 DUP8 ADD PUSH2 0xA8A JUMP JUMPDEST SWAP3 POP POP PUSH1 0x40 PUSH2 0xD74 DUP7 DUP3 DUP8 ADD PUSH2 0x965 JUMP JUMPDEST SWAP2 POP POP SWAP3 POP SWAP3 POP SWAP3 JUMP JUMPDEST PUSH32 0x4E487B7100000000000000000000000000000000000000000000000000000000 PUSH1 0x0 MSTORE PUSH1 0x22 PUSH1 0x4 MSTORE PUSH1 0x24 PUSH1 0x0 REVERT JUMPDEST PUSH1 0x0 PUSH1 0x2 DUP3 DIV SWAP1 POP PUSH1 0x1 DUP3 AND DUP1 PUSH2 0xDC5 JUMPI PUSH1 0x7F DUP3 AND SWAP2 POP JUMPDEST PUSH1 0x20 DUP3 LT DUP2 SUB PUSH2 0xDD8 JUMPI PUSH2 0xDD7 PUSH2 0xD7E JUMP JUMPDEST JUMPDEST POP SWAP2 SWAP1 POP JUMP JUMPDEST PUSH32 0x4E487B7100000000000000000000000000000000000000000000000000000000 PUSH1 0x0 MSTORE PUSH1 0x11 PUSH1 0x4 MSTORE PUSH1 0x24 PUSH1 0x0 REVERT JUMPDEST PUSH1 0x0 PUSH2 0xE18 DUP3 PUSH2 0xA07 JUMP JUMPDEST SWAP2 POP PUSH32 0xFFFFFFFFFFFFFFFFFFFFFFFFFFFFFFFFFFFFFFFFFFFFFFFFFFFFFFFFFFFFFFFF DUP3 SUB PUSH2 0xE4A JUMPI PUSH2 0xE49 PUSH2 0xDDE JUMP JUMPDEST JUMPDEST PUSH1 0x1 DUP3 ADD SWAP1 POP SWAP2 SWAP1 POP JUMP JUMPDEST PUSH32 0x4E487B7100000000000000000000000000000000000000000000000000000000 PUSH1 0x0 MSTORE PUSH1 0x12 PUSH1 0x4 MSTORE PUSH1 0x24 PUSH1 0x0 REVERT JUMPDEST PUSH1 0x0 PUSH2 0xE8F DUP3 PUSH2 0xA07 JUMP JUMPDEST SWAP2 POP PUSH2 0xE9A DUP4 PUSH2 0xA07 JUMP JUMPDEST SWAP3 POP DUP3 PUSH2 0xEAA JUMPI PUSH2 0xEA9 PUSH2 0xE55 JUMP JUMPDEST JUMPDEST DUP3 DUP3 DIV SWAP1 POP SWAP3 SWAP2 POP POP JUMP INVALID LOG2 PUSH5 0x6970667358 0x22 SLT KECCAK256 PUSH30 0x50F9EC1A7FFBF594D5EE7788246A420A57C2D74860E539B51451A92806A2 SWAP3 PUSH5 0x736F6C6343 STOP ADDMOD 0xD STOP CALLER "},"gasEstimates":{"creation":{"codeDepositCost":"763800","executionCost":"infinite","totalCost":"infinite"},"external":{"approveRequest(uint256)":"infinite","approvers(address)":"2846","approversCount()":"2518","contribute()":"53263","createRequest(string,uint256,address)":"infinite","finishRequest(uint256)":"infinite","getDetail()":"infinite","manager()":"2534","minimumContribution()":"2451","requests(uint256)":"infinite","requestsCount()":"2539"}},"methodIdentifiers":{"approveRequest(uint256)":"d7d1bbdb","approvers(address)":"0a144391","approversCount()":"82fde093","contribute()":"d7bb99ba","createRequest(string,uint256,address)":"8a9cfd55","finishRequest(uint256)":"cc58b5ef","getDetail()":"5b2a4cff","manager()":"481c6a75","minimumContribution()":"937e09b1","requests(uint256)":"81d12c58","requestsCount()":"fbfa4b7f"}},"storageLayout":{"storage":[{"astId":56,"contract":"Donation.sol:Donation","label":"manager","offset":0,"slot":"0","type":"t_address"},{"astId":58,"contract":"Donation.sol:Donation","label":"minimumContribution","offset":0,"slot":"1","type":"t_uint256"},{"astId":62,"contract":"Donation.sol:Donation","label":"approvers","offset":0,"slot":"2","type":"t_mapping(t_address,t_bool)"},{"astId":67,"contract":"Donation.sol:Donation","label":"requests","offset":0,"slot":"3","type":"t_mapping(t_uint256,t_struct(Request)54_storage)"},{"astId":69,"contract":"Donation.sol:Donation","label":"requestsCount","offset":0,"slot":"4","type":"t_uint256"},{"astId":71,"contract":"Donation.sol:Donation","label":"approversCount","offset":0,"slot":"5","type":"t_uint256"}],"types":{"t_address":{"encoding":"inplace","label":"address","numberOfBytes":"20"},"t_bool":{"encoding":"inplace","label":"bool","numberOfBytes":"1"},"t_mapping(t_address,t_bool)":{"encoding":"mapping","key":"t_address","label":"mapping(address => bool)","numberOfBytes":"32","value":"t_bool"},"t_mapping(t_uint256,t_struct(Request)54_storage)":{"encoding":"mapping","key":"t_uint256","label":"mapping(uint256 => struct Donation.Request)","numberOfBytes":"32","value":"t_struct(Request)54_storage"},"t_string_storage":{"encoding":"bytes","label":"string","numberOfBytes":"32"},"t_struct(Request)54_storage":{"encoding":"inplace","label":"struct Donation.Request","members":[{"astId":41,"contract":"Donation.sol:Donation","label":"description","offset":0,"slot":"0","type":"t_string_storage"},{"astId":43,"contract":"Donation.sol:Donation","label":"value","offset":0,"slot":"1","type":"t_uint256"},{"astId":45,"contract":"Donation.sol:Donation","label":"recipient","offset":0,"slot":"2","type":"t_address"},{"astId":47,"contract":"Donation.sol:Donation","label":"complete","offset":20,"slot":"2","type":"t_bool"},{"astId":49,"contract":"Donation.sol:Donation","label":"approvalsCount","offset":0,"slot":"3","type":"t_uint256"},{"astId":53,"contract":"Donation.sol:Donation","label":"approvals","offset":0,"slot":"4","type":"t_mapping(t_address,t_bool)"}],"numberOfBytes":"160"},"t_uint256":{"encoding":"inplace","label":"uint256","numberOfBytes":"32"}}},"userdoc":{"kind":"user","methods":{},"version":1}}